8=FIX.4.2|9=63|35=A|34=1|49=ICE|52=20140225-20:24:23.533|56=12000|98=0|108=30|10=185|8=FIX.4.2|9=119|35=CJ|34=2|49=ICE|50=G|52=20140225-20:24:24.534|56=12000|57=1|143=0|369=1|1=0|60=20140225-20:24:24|553=3red_fix_trader|10=111|8=FIX.4.2|9=103|35=j|34=3|49=ICE|52=20140225-20:24:24.534|56=12000|369=2|45=2|58=Unsupported Message Type|372=CH|380=3|10=079|8=FIX.4.2|9=119|35=CI|34=4|49=ICE|50=G|52=20140225-20:24:25.534|56=12000|57=1|143=0|369=2|1=0|60=20140225-20:24:25|553=3red_fix_trader|10=115|8=FIX.4.2|9=103|35=j|34=5|49=ICE|52=20140225-20:24:25.535|56=12000|369=3|45=3|58=Unsupported Message Type|372=CG|380=3|10=084|8=FIX.4.2|9=51|35=0|34=6|49=ICE|52=20140225-20:24:55.566|56=12000|10=156|8=FIX.4.2|9=60|35=1|34=7|49=ICE|52=20140225-20:25:01.573|56=12000|112=TEST|10=166|8=FIX.4.2|9=51|35=0|34=8|49=ICE|52=20140225-20:25:31.609|56=12000|10=151|8=FIX.4.2|9=60|35=1|34=9|49=ICE|52=20140225-20:25:37.616|56=12000|112=TEST|10=175|8=FIX.4.2|9=52|35=0|34=10|49=ICE|52=20140225-20:26:07.644|56=12000|10=196|8=FIX.4.2|9=61|35=1|34=11|49=ICE|52=20140225-20:26:13.652|56=12000|112=TEST|10=212|8=FIX.4.2|9=52|35=0|34=12|49=ICE|52=20140225-20:26:43.688|56=12000|10=206|8=FIX.4.2|9=61|35=1|34=13|49=ICE|52=20140225-20:26:49.696|56=12000|112=TEST|10=231|8=FIX.4.2|9=52|35=0|34=14|49=ICE|52=20140225-20:27:19.733|56=12000|10=203|8=FIX.4.2|9=61|35=1|34=15|49=ICE|52=20140225-20:27:25.739|56=12000|112=TEST|10=226|8=FIX.4.2|9=52|35=0|34=16|49=ICE|52=20140225-20:27:55.776|56=12000|10=212|8=FIX.4.2|9=61|35=1|34=17|49=ICE|52=20140225-20:28:01.783|56=12000|112=TEST|10=222|8=FIX.4.2|9=52|35=0|34=18|49=ICE|52=20140225-20:28:31.820|56=12000|10=199|8=FIX.4.2|9=61|35=1|34=19|49=ICE|52=20140225-20:28:37.827|56=12000|112=TEST|10=232|8=FIX.4.2|9=52|35=0|34=20|49=ICE|52=20140225-20:29:07.860|56=12000|10=200|8=FIX.4.2|9=61|35=1|34=21|49=ICE|52=20140225-20:29:13.868|56=12000|112=TEST|10=225|8=FIX.4.2|9=52|35=0|34=22|49=ICE|52=20140225-20:29:43.898|56=12000|10=213|8=FIX.4.2|9=61|35=1|34=23|49=ICE|52=20140225-20:29:49.905|56=12000|112=TEST|10=228|8=FIX.4.2|9=52|35=0|34=24|49=ICE|52=20140225-20:30:19.940|56=12000|10=198|8=FIX.4.2|9=61|35=1|34=25|49=ICE|52=20140225-20:30:25.948|56=12000|112=TEST|10=223|8=FIX.4.2|9=52|35=0|34=26|49=ICE|52=20140225-20:30:55.984|56=12000|10=208|8=FIX.4.2|9=61|35=1|34=27|49=ICE|52=20140225-20:31:01.991|56=12000|112=TEST|10=218|8=FIX.4.2|9=52|35=0|34=28|49=ICE|52=20140225-20:31:31.025|56=12000|10=191|8=FIX.4.2|9=61|35=1|34=29|49=ICE|52=20140225-20:31:37.032|56=12000|112=TEST|10=215|8=FIX.4.2|9=52|35=0|34=30|49=ICE|52=20140225-20:32:07.068|56=12000|10=195|8=FIX.4.2|9=61|35=1|34=31|49=ICE|52=20140225-20:32:13.075|56=12000|112=TEST|10=210|8=FIX.4.2|9=52|35=0|34=32|49=ICE|52=20140225-20:32:43.108|56=12000|10=192|8=FIX.4.2|9=61|35=1|34=33|49=ICE|52=20140225-20:32:49.115|56=12000|112=TEST|10=216|8=FIX.4.2|9=52|35=0|34=34|49=ICE|52=20140225-20:33:19.149|56=12000|10=203|8=FIX.4.2|9=61|35=1|34=35|49=ICE|52=20140225-20:33:25.156|56=12000|112=TEST|10=218|8=FIX.4.2|9=52|35=0|34=36|49=ICE|52=20140225-20:33:55.191|56=12000|10=202|8=FIX.4.2|9=61|35=1|34=37|49=ICE|52=20140225-20:34:01.198|56=12000|112=TEST|10=221|8=FIX.4.2|9=52|35=0|34=38|49=ICE|52=20140225-20:34:31.234|56=12000|10=197|8=FIX.4.2|9=61|35=1|34=39|49=ICE|52=20140225-20:34:37.241|56=12000|112=TEST|10=221|8=FIX.4.2|9=52|35=0|34=40|49=ICE|52=20140225-20:35:07.277|56=12000|10=201|8=FIX.4.2|9=61|35=1|34=41|49=ICE|52=20140225-20:35:13.285|56=12000|112=TEST|10=217|8=FIX.4.2|9=52|35=0|34=42|49=ICE|52=20140225-20:35:43.321|56=12000|10=193|8=FIX.4.2|9=61|35=1|34=43|49=ICE|52=20140225-20:35:49.329|56=12000|112=TEST|10=227|8=FIX.4.2|9=52|35=0|34=44|49=ICE|52=20140225-20:36:19.365|56=12000|10=207|8=FIX.4.2|9=61|35=1|34=45|49=ICE|52=20140225-20:36:25.371|56=12000|112=TEST|10=221|8=FIX.4.2|9=52|35=0|34=46|49=ICE|52=20140225-20:36:55.408|56=12000|10=207|8=FIX.4.2|9=61|35=1|34=47|49=ICE|52=20140225-20:37:01.415|56=12000|112=TEST|10=217|8=FIX.4.2|9=52|35=0|34=48|49=ICE|52=20140225-20:37:31.451|56=12000|10=202|8=FIX.4.2|9=61|35=1|34=49|49=ICE|52=20140225-20:37:37.458|56=12000|112=TEST|10=235|8=FIX.4.2|9=52|35=0|34=50|49=ICE|52=20140225-20:38:07.495|56=12000|10=207|8=FIX.4.2|9=61|35=1|34=51|49=ICE|52=20140225-20:38:13.502|56=12000|112=TEST|10=213|8=FIX.4.2|9=52|35=0|34=52|49=ICE|52=20140225-20:38:43.538|56=12000|10=207|8=FIX.4.2|9=61|35=1|34=53|49=ICE|52=20140225-20:38:49.546|56=12000|112=TEST|10=232|8=FIX.4.2|9=52|35=0|34=54|49=ICE|52=20140225-20:39:19.582|56=12000|10=212|8=FIX.4.2|9=61|35=1|34=55|49=ICE|52=20140225-20:39:25.589|56=12000|112=TEST|10=236|8=FIX.4.2|9=52|35=0|34=56|49=ICE|52=20140225-20:39:55.625|56=12000|10=212|8=FIX.4.2|9=61|35=1|34=57|49=ICE|52=20140225-20:40:01.632|56=12000|112=TEST|10=213|8=FIX.4.2|9=52|35=0|34=58|49=ICE|52=20140225-20:40:31.668|56=12000|10=207|8=FIX.4.2|9=61|35=1|34=59|49=ICE|52=20140225-20:40:37.675|56=12000|112=TEST|10=231|8=FIX.4.2|9=52|35=0|34=60|49=ICE|52=20140225-20:41:07.710|56=12000|10=192|8=FIX.4.2|9=61|35=1|34=61|49=ICE|52=20140225-20:41:13.718|56=12000|112=TEST|10=217|8=FIX.4.2|9=52|35=0|34=62|49=ICE|52=20140225-20:41:43.753|56=12000|10=201|8=FIX.4.2|9=61|35=1|34=63|49=ICE|52=20140225-20:41:49.760|56=12000|112=TEST|10=225|8=FIX.4.2|9=52|35=0|34=64|49=ICE|52=20140225-20:42:19.796|56=12000|10=214|8=FIX.4.2|9=61|35=1|34=65|49=ICE|52=20140225-20:42:25.802|56=12000|112=TEST|10=219|8=FIX.4.2|9=52|35=0|34=66|49=ICE|52=20140225-20:42:55.838|56=12000|10=213|8=FIX.4.2|9=61|35=1|34=67|49=ICE|52=20140225-20:43:01.845|56=12000|112=TEST|10=223|8=FIX.4.2|9=52|35=0|34=68|49=ICE|52=20140225-20:43:31.879|56=12000|10=215|8=FIX.4.2|9=61|35=1|34=69|49=ICE|52=20140225-20:43:37.885|56=12000|112=TEST|10=238|8=FIX.4.2|9=52|35=0|34=70|49=ICE|52=20140225-20:44:07.918|56=12000|10=206|8=FIX.4.2|9=61|35=1|34=71|49=ICE|52=20140225-20:44:13.923|56=12000|112=TEST|10=219|8=FIX.4.2|9=52|35=0|34=72|49=ICE|52=20140225-20:44:43.942|56=12000|10=205|8=FIX.4.2|9=61|35=1|34=73|49=ICE|52=20140225-20:44:49.946|56=12000|112=TEST|10=235|8=FIX.4.2|9=52|35=0|34=74|49=ICE|52=20140225-20:45:19.959|56=12000|10=219|8=FIX.4.2|9=61|35=1|34=75|49=ICE|52=20140225-20:45:25.961|56=12000|112=TEST|10=229|8=FIX.4.2|9=52|35=0|34=76|49=ICE|52=20140225-20:45:55.967|56=12000|10=220|8=FIX.4.2|9=61|35=1|34=77|49=ICE|52=20140225-20:46:01.974|56=12000|112=TEST|10=230|8=FIX.4.2|9=52|35=0|34=78|49=ICE|52=20140225-20:46:31.983|56=12000|10=215|8=FIX.4.2|9=61|35=1|34=79|49=ICE|52=20140225-20:46:37.985|56=12000|112=TEST|10=243|8=FIX.4.2|9=52|35=0|34=80|49=ICE|52=20140225-20:47:07.994|56=12000|10=214|8=FIX.4.2|9=61|35=1|34=81|49=ICE|52=20140225-20:47:13.001|56=12000|112=TEST|10=210|8=FIX.4.2|9=289|35=8|34=82|49=ICE|50=G|52=20140225-20:47:23.964|56=12000|57=1|143=0|369=45|1=0|6=0|11=120001000001|14=0|17=0000000000000000000000000000000000000001|20=0|37=00000000000000001|38=2|39=0|40=2|44=109.489999999991|48=219696|54=1|55=IPE e-Brent|60=20140225-20:47:23|107=BRN FMJ0014!|150=0|151=2|10=046|8=FIX.4.2|9=289|35=8|34=83|49=ICE|50=G|52=20140225-20:47:23.965|56=12000|57=1|143=0|369=46|1=0|6=0|11=120001000002|14=0|17=0000000000000000000000000000000000000002|20=0|37=00000000000000002|38=1|39=0|40=2|44=109.479999999981|48=219696|54=1|55=IPE e-Brent|60=20140225-20:47:23|107=BRN FMJ0014!|150=0|151=1|10=048|8=FIX.4.2|9=289|35=8|34=84|49=ICE|50=G|52=20140225-20:47:23.966|56=12000|57=1|143=0|369=47|1=0|6=0|11=120001000003|14=0|17=0000000000000000000000000000000000000003|20=0|37=00000000000000003|38=2|39=0|40=2|44=109.469999999972|48=219696|54=1|55=IPE e-Brent|60=20140225-20:47:23|107=BRN FMJ0014!|150=0|151=2|10=055|8=FIX.4.2|9=289|35=8|34=85|49=ICE|50=G|52=20140225-20:47:23.967|56=12000|57=1|143=0|369=48|1=0|6=0|11=120001000004|14=0|17=0000000000000000000000000000000000000004|20=0|37=00000000000000004|38=2|39=0|40=2|44=109.459999999963|48=219696|54=1|55=IPE e-Brent|60=20140225-20:47:23|107=BRN FMJ0014!|150=0|151=2|10=060|8=FIX.4.2|9=278|35=8|34=86|49=ICE|50=G|52=20140225-20:47:23.969|56=12000|57=1|143=0|369=49|1=0|6=0|11=120001000005|14=0|17=0000000000000000000000000000000000000005|20=0|37=00000000000000005|38=2|39=0|40=2|44=109.5|48=219696|54=2|55=IPE e-Brent|60=20140225-20:47:23|107=BRN FMJ0014!|150=0|151=2|10=221|8=FIX.4.2|9=289|35=8|34=87|49=ICE|50=G|52=20140225-20:47:23.970|56=12000|57=1|143=0|369=49|1=0|6=0|11=120001000006|14=0|17=0000000000000000000000000000000000000006|20=0|37=00000000000000006|38=1|39=0|40=2|44=109.509999999776|48=219696|54=2|55=IPE e-Brent|60=20140225-20:47:23|107=BRN FMJ0014!|150=0|151=1|10=060|8=FIX.4.2|9=289|35=8|34=88|49=ICE|50=G|52=20140225-20:47:23.971|56=12000|57=1|143=0|369=49|1=0|6=0|11=120001000007|14=0|17=0000000000000000000000000000000000000007|20=0|37=00000000000000007|38=1|39=0|40=2|44=109.519999999786|48=219696|54=2|55=IPE e-Brent|60=20140225-20:47:23|107=BRN FMJ0014!|150=0|151=1|10=067|8=FIX.4.2|9=289|35=8|34=89|49=ICE|50=G|52=20140225-20:47:23.972|56=12000|57=1|143=0|369=49|1=0|6=0|11=120001000008|14=0|17=0000000000000000000000000000000000000008|20=0|37=00000000000000008|38=1|39=0|40=2|44=109.529999999795|48=219696|54=2|55=IPE e-Brent|60=20140225-20:47:23|107=BRN FMJ0014!|150=0|151=1|10=073|8=FIX.4.2|9=292|35=8|34=90|49=ICE|50=G|52=20140225-20:47:24.077|56=12000|57=1|143=0|369=49|1=0|6=0|11=120001000005|14=2|17=0000000000000000000000000000000000000009|20=0|31=109.5|32=2|37=00000000000000005|38=2|39=2|40=2|44=109.5|48=219696|54=2|55=IPE e-Brent|60=20140225-20:47:24|107=BRN FMJ0014!|150=2|151=0|10=072|8=FIX.4.2|9=314|35=8|34=91|49=ICE|50=G|52=20140225-20:47:24.077|56=12000|57=1|143=0|369=49|1=0|6=0|11=120001000006|14=1|17=000000000000000000000000000000000000000A|20=0|31=109.509999999776|32=1|37=00000000000000006|38=1|39=2|40=2|44=109.509999999776|48=219696|54=2|55=IPE e-Brent|60=20140225-20:47:24|107=BRN FMJ0014!|150=2|151=0|10=017|8=FIX.4.2|9=314|35=8|34=92|49=ICE|50=G|52=20140225-20:47:24.078|56=12000|57=1|143=0|369=49|1=0|6=0|11=120001000007|14=1|17=000000000000000000000000000000000000000B|20=0|31=109.519999999786|32=1|37=00000000000000007|38=1|39=2|40=2|44=109.519999999786|48=219696|54=2|55=IPE e-Brent|60=20140225-20:47:24|107=BRN FMJ0014!|150=2|151=0|10=026|8=FIX.4.2|9=314|35=8|34=93|49=ICE|50=G|52=20140225-20:47:24.078|56=12000|57=1|143=0|369=49|1=0|6=0|11=120001000008|14=1|17=000000000000000000000000000000000000000C|20=0|31=109.529999999795|32=1|37=00000000000000008|38=1|39=2|40=2|44=109.529999999795|48=219696|54=2|55=IPE e-Brent|60=20140225-20:47:24|107=BRN FMJ0014!|150=2|151=0|10=032|8=FIX.4.2|9=305|35=8|34=94|49=ICE|50=G|52=20140225-20:47:24.219|56=12000|57=1|143=0|369=50|1=0|6=0|11=120001000009|14=0|17=000000000000000000000000000000000000000D|20=0|37=00000000000000004|38=2|39=4|40=2|41=120001000004|44=109.459999999963|48=219696|54=1|55=IPE e-Brent|60=20140225-20:47:24|107=BRN FMJ0014!|150=4|151=2|10=042|8=FIX.4.2|9=289|35=8|34=95|49=ICE|50=G|52=20140225-20:47:24.223|56=12000|57=1|143=0|369=53|1=0|6=0|11=120001000011|14=0|17=000000000000000000000000000000000000000E|20=0|37=00000000000000009|38=2|39=0|40=2|44=109.489999999991|48=219696|54=1|55=IPE e-Brent|60=20140225-20:47:24|107=BRN FMJ0014!|150=0|151=2|10=068|8=FIX.4.2|9=289|35=8|34=96|49=ICE|50=G|52=20140225-20:47:24.224|56=12000|57=1|143=0|369=53|1=0|6=0|11=120001000012|14=0|17=000000000000000000000000000000000000000F|20=0|37=00000000000000010|38=2|39=0|40=2|44=109.489999999991|48=219696|54=1|55=IPE e-Brent|60=20140225-20:47:24|107=BRN FMJ0014!|150=0|151=2|10=064|8=FIX.4.2|9=278|35=8|34=97|49=ICE|50=G|52=20140225-20:47:24.224|56=12000|57=1|143=0|369=53|1=0|6=0|11=120001000013|14=0|17=000000000000000000000000000000000000000G|20=0|37=00000000000000011|38=2|39=0|40=2|44=109.5|48=219696|54=2|55=IPE e-Brent|60=20140225-20:47:24|107=BRN FMJ0014!|150=0|151=2|10=218|8=FIX.4.2|9=289|35=8|34=98|49=ICE|50=G|52=20140225-20:47:24.228|56=12000|57=1|143=0|369=54|1=0|6=0|11=120001000014|14=0|17=000000000000000000000000000000000000000H|20=0|37=00000000000000012|38=1|39=0|40=2|44=109.489999999991|48=219696|54=1|55=IPE e-Brent|60=20140225-20:47:24|107=BRN FMJ0014!|150=0|151=1|10=075|8=FIX.4.2|9=292|35=8|34=99|49=ICE|50=G|52=20140225-20:47:24.437|56=12000|57=1|143=0|369=54|1=0|6=0|11=120001000013|14=2|17=000000000000000000000000000000000000000I|20=0|31=109.5|32=2|37=00000000000000011|38=2|39=2|40=2|44=109.5|48=219696|54=2|55=IPE e-Brent|60=20140225-20:47:24|107=BRN FMJ0014!|150=2|151=0|10=089|8=FIX.4.2|9=290|35=8|34=100|49=ICE|50=G|52=20140225-20:47:24.476|56=12000|57=1|143=0|369=55|1=0|6=0|11=120001000015|14=0|17=000000000000000000000000000000000000000J|20=0|37=00000000000000013|38=2|39=0|40=2|44=109.489999999991|48=219696|54=1|55=IPE e-Brent|60=20140225-20:47:24|107=BRN FMJ0014!|150=0|151=2|10=111|8=FIX.4.2|9=306|35=8|34=101|49=ICE|50=G|52=20140225-20:47:24.481|56=12000|57=1|143=0|369=57|1=0|6=0|11=120001000016|14=0|17=000000000000000000000000000000000000000K|20=0|37=00000000000000009|38=2|39=4|40=2|41=120001000011|44=109.489999999991|48=219696|54=1|55=IPE e-Brent|60=20140225-20:47:24|107=BRN FMJ0014!|150=4|151=2|10=100|8=FIX.4.2|9=290|35=8|34=102|49=ICE|50=G|52=20140225-20:47:24.481|56=12000|57=1|143=0|369=57|1=0|6=0|11=120001000017|14=0|17=000000000000000000000000000000000000000L|20=0|37=00000000000000014|38=1|39=0|40=2|44=109.489999999991|48=219696|54=1|55=IPE e-Brent|60=20140225-20:47:24|107=BRN FMJ0014!|150=0|151=1|10=114|8=FIX.4.2|9=279|35=8|34=103|49=ICE|50=G|52=20140225-20:47:24.731|56=12000|57=1|143=0|369=58|1=0|6=0|11=120001000018|14=0|17=000000000000000000000000000000000000000M|20=0|37=00000000000000015|38=2|39=0|40=2|44=109.5|48=219696|54=2|55=IPE e-Brent|60=20140225-20:47:24|107=BRN FMJ0014!|150=0|151=2|10=022|8=FIX.4.2|9=293|35=8|34=104|49=ICE|50=G|52=20140225-20:47:24.867|56=12000|57=1|143=0|369=58|1=0|6=0|11=120001000018|14=2|17=000000000000000000000000000000000000000N|20=0|31=109.5|32=2|37=00000000000000015|38=2|39=2|40=2|44=109.5|48=219696|54=2|55=IPE e-Brent|60=20140225-20:47:24|107=BRN FMJ0014!|150=2|151=0|10=150|8=FIX.4.2|9=279|35=8|34=105|49=ICE|50=G|52=20140225-20:47:24.983|56=12000|57=1|143=0|369=59|1=0|6=0|11=120001000020|14=0|17=000000000000000000000000000000000000000O|20=0|37=00000000000000016|38=1|39=0|40=2|44=109.5|48=219696|54=2|55=IPE e-Brent|60=20140225-20:47:24|107=BRN FMJ0014!|150=0|151=1|10=028|8=FIX.4.2|9=295|35=8|34=106|49=ICE|50=G|52=20140225-20:47:25.234|56=12000|57=1|143=0|369=60|1=0|6=0|11=120001000021|14=0|17=000000000000000000000000000000000000000P|20=0|37=00000000000000016|38=1|39=4|40=2|41=120001000020|44=109.5|48=219696|54=2|55=IPE e-Brent|60=20140225-20:47:25|107=BRN FMJ0014!|150=4|151=1|10=253|8=FIX.4.2|9=279|35=8|34=107|49=ICE|50=G|52=20140225-20:47:25.486|56=12000|57=1|143=0|369=61|1=0|6=0|11=120001000022|14=0|17=000000000000000000000000000000000000000Q|20=0|37=00000000000000017|38=1|39=0|40=2|44=109.5|48=219696|54=2|55=IPE e-Brent|60=20140225-20:47:25|107=BRN FMJ0014!|150=0|151=1|10=028|8=FIX.4.2|9=293|35=8|34=108|49=ICE|50=G|52=20140225-20:47:25.772|56=12000|57=1|143=0|369=61|1=0|6=0|11=120001000022|14=1|17=000000000000000000000000000000000000000R|20=0|31=109.5|32=1|37=00000000000000017|38=1|39=2|40=2|44=109.5|48=219696|54=2|55=IPE e-Brent|60=20140225-20:47:25|107=BRN FMJ0014!|150=2|151=0|10=143|8=FIX.4.2|9=279|35=8|34=109|49=ICE|50=G|52=20140225-20:47:25.989|56=12000|57=1|143=0|369=62|1=0|6=0|11=120001000023|14=0|17=000000000000000000000000000000000000000S|20=0|37=00000000000000018|38=1|39=0|40=2|44=109.5|48=219696|54=2|55=IPE e-Brent|60=20140225-20:47:25|107=BRN FMJ0014!|150=0|151=1|10=043|8=FIX.4.2|9=293|35=8|34=110|49=ICE|50=G|52=20140225-20:47:26.453|56=12000|57=1|143=0|369=62|1=0|6=0|11=120001000023|14=1|17=000000000000000000000000000000000000000T|20=0|31=109.5|32=1|37=00000000000000018|38=1|39=2|40=2|44=109.5|48=219696|54=2|55=IPE e-Brent|60=20140225-20:47:26|107=BRN FMJ0014!|150=2|151=0|10=139|8=FIX.4.2|9=279|35=8|34=111|49=ICE|50=G|52=20140225-20:47:26.491|56=12000|57=1|143=0|369=63|1=0|6=0|11=120001000024|14=0|17=000000000000000000000000000000000000000U|20=0|37=00000000000000019|38=1|39=0|40=2|44=109.5|48=219696|54=2|55=IPE e-Brent|60=20140225-20:47:26|107=BRN FMJ0014!|150=0|151=1|10=031|8=FIX.4.2|9=293|35=8|34=112|49=ICE|50=G|52=20140225-20:47:26.525|56=12000|57=1|143=0|369=63|1=0|6=0|11=120001000024|14=1|17=000000000000000000000000000000000000000V|20=0|31=109.5|32=1|37=00000000000000019|38=1|39=2|40=2|44=109.5|48=219696|54=2|55=IPE e-Brent|60=20140225-20:47:26|107=BRN FMJ0014!|150=2|151=0|10=146|8=FIX.4.2|9=290|35=8|34=113|49=ICE|50=G|52=20140225-20:47:26.743|56=12000|57=1|143=0|369=64|1=0|6=0|11=120001000025|14=0|17=000000000000000000000000000000000000000W|20=0|37=00000000000000020|38=2|39=0|40=2|44=109.479999999981|48=219696|54=1|55=IPE e-Brent|60=20140225-20:47:26|107=BRN FMJ0014!|150=0|151=2|10=126|8=FIX.4.2|9=306|35=8|34=114|49=ICE|50=G|52=20140225-20:47:37.026|56=12000|57=1|143=0|369=65|1=0|6=0|11=120001000026|14=0|17=000000000000000000000000000000000000000X|20=0|37=00000000000000001|38=2|39=4|40=2|41=120001000001|44=109.489999999991|48=219696|54=1|55=IPE e-Brent|60=20140225-20:47:37|107=BRN FMJ0014!|150=4|151=2|10=111|8=FIX.4.2|9=306|35=8|34=115|49=ICE|50=G|52=20140225-20:47:37.030|56=12000|57=1|143=0|369=72|1=0|6=0|11=120001000027|14=0|17=000000000000000000000000000000000000000Y|20=0|37=00000000000000002|38=1|39=4|40=2|41=120001000002|44=109.479999999981|48=219696|54=1|55=IPE e-Brent|60=20140225-20:47:37|107=BRN FMJ0014!|150=4|151=1|10=105|8=FIX.4.2|9=306|35=8|34=116|49=ICE|50=G|52=20140225-20:47:37.030|56=12000|57=1|143=0|369=72|1=0|6=0|11=120001000028|14=0|17=000000000000000000000000000000000000000Z|20=0|37=00000000000000003|38=2|39=4|40=2|41=120001000003|44=109.469999999972|48=219696|54=1|55=IPE e-Brent|60=20140225-20:47:37|107=BRN FMJ0014!|150=4|151=2|10=111|8=FIX.4.2|9=306|35=8|34=117|49=ICE|50=G|52=20140225-20:47:37.031|56=12000|57=1|143=0|369=72|1=0|6=0|11=120001000029|14=0|17=0000000000000000000000000000000000000010|20=0|37=00000000000000010|38=2|39=4|40=2|41=120001000012|44=109.489999999991|48=219696|54=1|55=IPE e-Brent|60=20140225-20:47:37|107=BRN FMJ0014!|150=4|151=2|10=074|8=FIX.4.2|9=306|35=8|34=118|49=ICE|50=G|52=20140225-20:47:37.031|56=12000|57=1|143=0|369=72|1=0|6=0|11=120001000030|14=0|17=0000000000000000000000000000000000000011|20=0|37=00000000000000012|38=1|39=4|40=2|41=120001000014|44=109.489999999991|48=219696|54=1|55=IPE e-Brent|60=20140225-20:47:37|107=BRN FMJ0014!|150=4|151=1|10=070|8=FIX.4.2|9=306|35=8|34=119|49=ICE|50=G|52=20140225-20:47:37.031|56=12000|57=1|143=0|369=72|1=0|6=0|11=120001000031|14=0|17=0000000000000000000000000000000000000012|20=0|37=00000000000000013|38=2|39=4|40=2|41=120001000015|44=109.489999999991|48=219696|54=1|55=IPE e-Brent|60=20140225-20:47:37|107=BRN FMJ0014!|150=4|151=2|10=077|8=FIX.4.2|9=306|35=8|34=120|49=ICE|50=G|52=20140225-20:47:37.031|56=12000|57=1|143=0|369=72|1=0|6=0|11=120001000032|14=0|17=0000000000000000000000000000000000000013|20=0|37=00000000000000014|38=1|39=4|40=2|41=120001000017|44=109.489999999991|48=219696|54=1|55=IPE e-Brent|60=20140225-20:47:37|107=BRN FMJ0014!|150=4|151=1|10=072|8=FIX.4.2|9=306|35=8|34=121|49=ICE|50=G|52=20140225-20:47:37.031|56=12000|57=1|143=0|369=72|1=0|6=0|11=120001000033|14=0|17=0000000000000000000000000000000000000014|20=0|37=00000000000000020|38=2|39=4|40=2|41=120001000025|44=109.479999999981|48=219696|54=1|55=IPE e-Brent|60=20140225-20:47:37|107=BRN FMJ0014!|150=4|151=2|10=071|8=FIX.4.2|9=279|35=8|34=122|49=ICE|50=G|52=20140225-20:47:37.281|56=12000|57=1|143=0|369=73|1=0|6=0|11=120001000034|14=0|17=0000000000000000000000000000000000000015|20=0|37=00000000000000021|38=2|39=0|40=2|44=109.5|48=219696|54=2|55=IPE e-Brent|60=20140225-20:47:37|107=BRN FMJ0014!|150=0|151=2|10=000|8=FIX.4.2|9=290|35=8|34=123|49=ICE|50=G|52=20140225-20:47:37.286|56=12000|57=1|143=0|369=78|1=0|6=0|11=120001000035|14=0|17=0000000000000000000000000000000000000016|20=0|37=00000000000000022|38=1|39=0|40=2|44=109.489999999991|48=219696|54=1|55=IPE e-Brent|60=20140225-20:47:37|107=BRN FMJ0014!|150=0|151=1|10=109|8=FIX.4.2|9=279|35=8|34=124|49=ICE|50=G|52=20140225-20:47:37.286|56=12000|57=1|143=0|369=78|1=0|6=0|11=120001000036|14=0|17=0000000000000000000000000000000000000017|20=0|37=00000000000000023|38=1|39=0|40=2|44=109.5|48=219696|54=2|55=IPE e-Brent|60=20140225-20:47:37|107=BRN FMJ0014!|150=0|151=1|10=016|8=FIX.4.2|9=290|35=8|34=125|49=ICE|50=G|52=20140225-20:47:37.286|56=12000|57=1|143=0|369=78|1=0|6=0|11=120001000037|14=0|17=0000000000000000000000000000000000000018|20=0|37=00000000000000024|38=1|39=0|40=2|44=109.489999999991|48=219696|54=1|55=IPE e-Brent|60=20140225-20:47:37|107=BRN FMJ0014!|150=0|151=1|10=117|8=FIX.4.2|9=290|35=8|34=126|49=ICE|50=G|52=20140225-20:47:37.287|56=12000|57=1|143=0|369=78|1=0|6=0|11=120001000038|14=0|17=0000000000000000000000000000000000000019|20=0|37=00000000000000025|38=1|39=0|40=2|44=109.489999999991|48=219696|54=1|55=IPE e-Brent|60=20140225-20:47:37|107=BRN FMJ0014!|150=0|151=1|10=122|8=FIX.4.2|9=290|35=8|34=127|49=ICE|50=G|52=20140225-20:47:37.287|56=12000|57=1|143=0|369=78|1=0|6=0|11=120001000039|14=0|17=000000000000000000000000000000000000001A|20=0|37=00000000000000026|38=1|39=0|40=2|44=109.489999999991|48=219696|54=1|55=IPE e-Brent|60=20140225-20:47:37|107=BRN FMJ0014!|150=0|151=1|10=133|8=FIX.4.2|9=279|35=8|34=128|49=ICE|50=G|52=20140225-20:47:37.291|56=12000|57=1|143=0|369=80|1=0|6=0|11=120001000040|14=0|17=000000000000000000000000000000000000001B|20=0|37=00000000000000027|38=2|39=0|40=2|44=109.5|48=219696|54=2|55=IPE e-Brent|60=20140225-20:47:37|107=BRN FMJ0014!|150=0|151=2|10=021|8=FIX.4.2|9=290|35=8|34=129|49=ICE|50=G|52=20140225-20:47:37.291|56=12000|57=1|143=0|369=80|1=0|6=0|11=120001000041|14=0|17=000000000000000000000000000000000000001C|20=0|37=00000000000000028|38=2|39=0|40=2|44=109.489999999991|48=219696|54=1|55=IPE e-Brent|60=20140225-20:47:37|107=BRN FMJ0014!|150=0|151=2|10=122|8=FIX.4.2|9=306|35=8|34=130|49=ICE|50=G|52=20140225-20:47:37.541|56=12000|57=1|143=0|369=81|1=0|6=0|11=120001000042|14=0|17=000000000000000000000000000000000000001D|20=0|37=00000000000000026|38=1|39=4|40=2|41=120001000039|44=109.489999999991|48=219696|54=1|55=IPE e-Brent|60=20140225-20:47:37|107=BRN FMJ0014!|150=4|151=1|10=104|8=FIX.4.2|9=306|35=8|34=131|49=ICE|50=G|52=20140225-20:47:37.546|56=12000|57=1|143=0|369=82|1=0|6=0|11=120001000043|14=0|17=000000000000000000000000000000000000001E|20=0|37=00000000000000028|38=2|39=4|40=2|41=120001000041|44=109.489999999991|48=219696|54=1|55=IPE e-Brent|60=20140225-20:47:37|107=BRN FMJ0014!|150=4|151=2|10=110|8=FIX.4.2|9=290|35=8|34=132|49=ICE|50=G|52=20140225-20:47:37.794|56=12000|57=1|143=0|369=83|1=0|6=0|11=120001000044|14=0|17=000000000000000000000000000000000000001F|20=0|37=00000000000000029|38=2|39=0|40=2|44=109.489999999991|48=219696|54=1|55=IPE e-Brent|60=20140225-20:47:37|107=BRN FMJ0014!|150=0|151=2|10=134|8=FIX.4.2|9=279|35=8|34=133|49=ICE|50=G|52=20140225-20:47:37.799|56=12000|57=1|143=0|369=84|1=0|6=0|11=120001000045|14=0|17=000000000000000000000000000000000000001G|20=0|37=00000000000000030|38=1|39=0|40=2|44=109.5|48=219696|54=2|55=IPE e-Brent|60=20140225-20:47:37|107=BRN FMJ0014!|150=0|151=1|10=036|8=FIX.4.2|9=295|35=8|34=134|49=ICE|50=G|52=20140225-20:47:38.048|56=12000|57=1|143=0|369=85|1=0|6=0|11=120001000046|14=0|17=000000000000000000000000000000000000001H|20=0|37=00000000000000030|38=1|39=4|40=2|41=120001000045|44=109.5|48=219696|54=2|55=IPE e-Brent|60=20140225-20:47:38|107=BRN FMJ0014!|150=4|151=1|10=019|8=FIX.4.2|9=279|35=8|34=135|49=ICE|50=G|52=20140225-20:47:38.300|56=12000|57=1|143=0|369=86|1=0|6=0|11=120001000047|14=0|17=000000000000000000000000000000000000001I|20=0|37=00000000000000031|38=1|39=0|40=2|44=109.5|48=219696|54=2|55=IPE e-Brent|60=20140225-20:47:38|107=BRN FMJ0014!|150=0|151=1|10=025|8=FIX.4.2|9=295|35=8|34=136|49=ICE|50=G|52=20140225-20:47:38.552|56=12000|57=1|143=0|369=87|1=0|6=0|11=120001000048|14=0|17=000000000000000000000000000000000000001J|20=0|37=00000000000000031|38=1|39=4|40=2|41=120001000047|44=109.5|48=219696|54=2|55=IPE e-Brent|60=20140225-20:47:38|107=BRN FMJ0014!|150=4|151=1|10=030|8=FIX.4.2|9=290|35=8|34=137|49=ICE|50=G|52=20140225-20:47:38.803|56=12000|57=1|143=0|369=88|1=0|6=0|11=120001000049|14=0|17=000000000000000000000000000000000000001K|20=0|37=00000000000000032|38=1|39=0|40=2|44=109.489999999991|48=219696|54=1|55=IPE e-Brent|60=20140225-20:47:38|107=BRN FMJ0014!|150=0|151=1|10=139|8=FIX.4.2|9=293|35=8|34=138|49=ICE|50=G|52=20140225-20:47:40.537|56=12000|57=1|143=0|369=88|1=0|6=0|11=120001000034|14=2|17=000000000000000000000000000000000000001L|20=0|31=109.5|32=2|37=00000000000000021|38=2|39=2|40=2|44=109.5|48=219696|54=2|55=IPE e-Brent|60=20140225-20:47:40|107=BRN FMJ0014!|150=2|151=0|10=144|8=FIX.4.2|9=293|35=8|34=139|49=ICE|50=G|52=20140225-20:47:40.538|56=12000|57=1|143=0|369=88|1=0|6=0|11=120001000036|14=1|17=000000000000000000000000000000000000001M|20=0|31=109.5|32=1|37=00000000000000023|38=1|39=2|40=2|44=109.5|48=219696|54=2|55=IPE e-Brent|60=20140225-20:47:40|107=BRN FMJ0014!|150=2|151=0|10=148|8=FIX.4.2|9=293|35=8|34=140|49=ICE|50=G|52=20140225-20:47:40.539|56=12000|57=1|143=0|369=88|1=0|6=0|11=120001000040|14=2|17=000000000000000000000000000000000000001N|20=0|31=109.5|32=2|37=00000000000000027|38=2|39=2|40=2|44=109.5|48=219696|54=2|55=IPE e-Brent|60=20140225-20:47:40|107=BRN FMJ0014!|150=2|151=0|10=144|8=FIX.4.2|9=290|35=8|34=141|49=ICE|50=G|52=20140225-20:47:40.559|56=12000|57=1|143=0|369=89|1=0|6=0|11=120001000050|14=0|17=000000000000000000000000000000000000001O|20=0|37=00000000000000033|38=1|39=0|40=2|44=109.489999999991|48=219696|54=1|55=IPE e-Brent|60=20140225-20:47:40|107=BRN FMJ0014!|150=0|151=1|10=126|8=FIX.4.2|9=279|35=8|34=142|49=ICE|50=G|52=20140225-20:47:40.564|56=12000|57=1|143=0|369=91|1=0|6=0|11=120001000051|14=0|17=000000000000000000000000000000000000001P|20=0|37=00000000000000034|38=1|39=0|40=2|44=109.5|48=219696|54=2|55=IPE e-Brent|60=20140225-20:47:40|107=BRN FMJ0014!|150=0|151=1|10=022|8=FIX.4.2|9=279|35=8|34=143|49=ICE|50=G|52=20140225-20:47:40.564|56=12000|57=1|143=0|369=91|1=0|6=0|11=120001000052|14=0|17=000000000000000000000000000000000000001Q|20=0|37=00000000000000035|38=2|39=0|40=2|44=109.5|48=219696|54=2|55=IPE e-Brent|60=20140225-20:47:40|107=BRN FMJ0014!|150=0|151=2|10=028|8=FIX.4.2|9=293|35=8|34=144|49=ICE|50=G|52=20140225-20:47:46.382|56=12000|57=1|143=0|369=91|1=0|6=0|11=120001000051|14=1|17=000000000000000000000000000000000000001R|20=0|31=109.5|32=1|37=00000000000000034|38=1|39=2|40=2|44=109.5|48=219696|54=2|55=IPE e-Brent|60=20140225-20:47:46|107=BRN FMJ0014!|150=2|151=0|10=151|8=FIX.4.2|9=293|35=8|34=145|49=ICE|50=G|52=20140225-20:47:46.383|56=12000|57=1|143=0|369=91|1=0|6=0|11=120001000052|14=2|17=000000000000000000000000000000000000001S|20=0|31=109.5|32=2|37=00000000000000035|38=2|39=2|40=2|44=109.5|48=219696|54=2|55=IPE e-Brent|60=20140225-20:47:46|107=BRN FMJ0014!|150=2|151=0|10=159|8=FIX.4.2|9=290|35=8|34=146|49=ICE|50=G|52=20140225-20:47:46.575|56=12000|57=1|143=0|369=92|1=0|6=0|11=120001000053|14=0|17=000000000000000000000000000000000000001T|20=0|37=00000000000000036|38=1|39=0|40=2|44=109.489999999991|48=219696|54=1|55=IPE e-Brent|60=20140225-20:47:46|107=BRN FMJ0014!|150=0|151=1|10=146|8=FIX.4.2|9=279|35=8|34=147|49=ICE|50=G|52=20140225-20:47:46.580|56=12000|57=1|143=0|369=93|1=0|6=0|11=120001000054|14=0|17=000000000000000000000000000000000000001U|20=0|37=00000000000000037|38=1|39=0|40=2|44=109.5|48=219696|54=2|55=IPE e-Brent|60=20140225-20:47:46|107=BRN FMJ0014!|150=0|151=1|10=050|8=FIX.4.2|9=293|35=8|34=148|49=ICE|50=G|52=20140225-20:47:46.800|56=12000|57=1|143=0|369=93|1=0|6=0|11=120001000054|14=1|17=000000000000000000000000000000000000001V|20=0|31=109.5|32=1|37=00000000000000037|38=1|39=2|40=2|44=109.5|48=219696|54=2|55=IPE e-Brent|60=20140225-20:47:46|107=BRN FMJ0014!|150=2|151=0|10=162|8=FIX.4.2|9=279|35=8|34=149|49=ICE|50=G|52=20140225-20:47:46.828|56=12000|57=1|143=0|369=94|1=0|6=0|11=120001000055|14=0|17=000000000000000000000000000000000000001W|20=0|37=00000000000000038|38=2|39=0|40=2|44=109.5|48=219696|54=2|55=IPE e-Brent|60=20140225-20:47:46|107=BRN FMJ0014!|150=0|151=2|10=064|8=FIX.4.2|9=293|35=8|34=150|49=ICE|50=G|52=20140225-20:47:46.828|56=12000|57=1|143=0|369=94|1=0|6=0|11=120001000055|14=2|17=000000000000000000000000000000000000001X|20=0|31=109.5|32=2|37=00000000000000038|38=2|39=2|40=2|44=109.5|48=219696|54=2|55=IPE e-Brent|60=20140225-20:47:46|107=BRN FMJ0014!|150=2|151=0|10=173|8=FIX.4.2|9=279|35=8|34=151|49=ICE|50=G|52=20140225-20:47:47.080|56=12000|57=1|143=0|369=95|1=0|6=0|11=120001000056|14=0|17=000000000000000000000000000000000000001Y|20=0|37=00000000000000039|38=2|39=0|40=2|44=109.5|48=219696|54=2|55=IPE e-Brent|60=20140225-20:47:47|107=BRN FMJ0014!|150=0|151=2|10=054|8=FIX.4.2|9=293|35=8|34=152|49=ICE|50=G|52=20140225-20:47:47.127|56=12000|57=1|143=0|369=95|1=0|6=0|11=120001000056|14=2|17=000000000000000000000000000000000000001Z|20=0|31=109.5|32=2|37=00000000000000039|38=2|39=2|40=2|44=109.5|48=219696|54=2|55=IPE e-Brent|60=20140225-20:47:47|107=BRN FMJ0014!|150=2|151=0|10=174|8=FIX.4.2|9=279|35=8|34=153|49=ICE|50=G|52=20140225-20:47:47.333|56=12000|57=1|143=0|369=96|1=0|6=0|11=120001000057|14=0|17=0000000000000000000000000000000000000020|20=0|37=00000000000000040|38=2|39=0|40=2|44=109.5|48=219696|54=2|55=IPE e-Brent|60=20140225-20:47:47|107=BRN FMJ0014!|150=0|151=2|10=011|8=FIX.4.2|9=293|35=8|34=154|49=ICE|50=G|52=20140225-20:47:47.346|56=12000|57=1|143=0|369=96|1=0|6=0|11=120001000057|14=2|17=0000000000000000000000000000000000000021|20=0|31=109.5|32=2|37=00000000000000040|38=2|39=2|40=2|44=109.5|48=219696|54=2|55=IPE e-Brent|60=20140225-20:47:47|107=BRN FMJ0014!|150=2|151=0|10=133|8=FIX.4.2|9=290|35=8|34=155|49=ICE|50=G|52=20140225-20:47:47.585|56=12000|57=1|143=0|369=97|1=0|6=0|11=120001000059|14=0|17=0000000000000000000000000000000000000022|20=0|37=00000000000000041|38=1|39=0|40=2|44=109.479999999981|48=219696|54=1|55=IPE e-Brent|60=20140225-20:47:47|107=BRN FMJ0014!|150=0|151=1|10=121|8=FIX.4.2|9=306|35=8|34=156|49=ICE|50=G|52=20140225-20:47:47.836|56=12000|57=1|143=0|369=98|1=0|6=0|11=120001000060|14=0|17=0000000000000000000000000000000000000023|20=0|37=00000000000000041|38=1|39=4|40=2|41=120001000059|44=109.479999999981|48=219696|54=1|55=IPE e-Brent|60=20140225-20:47:47|107=BRN FMJ0014!|150=4|151=1|10=110|8=FIX.4.2|9=279|35=8|34=157|49=ICE|50=G|52=20140225-20:47:48.088|56=12000|57=1|143=0|369=99|1=0|6=0|11=120001000061|14=0|17=0000000000000000000000000000000000000024|20=0|37=00000000000000042|38=2|39=0|40=2|44=109.5|48=219696|54=2|55=IPE e-Brent|60=20140225-20:47:48|107=BRN FMJ0014!|150=0|151=2|10=028|8=FIX.4.2|9=293|35=8|34=158|49=ICE|50=G|52=20140225-20:47:48.412|56=12000|57=1|143=0|369=99|1=0|6=0|11=120001000061|14=2|17=0000000000000000000000000000000000000025|20=0|31=109.5|32=2|37=00000000000000042|38=2|39=2|40=2|44=109.5|48=219696|54=2|55=IPE e-Brent|60=20140225-20:47:48|107=BRN FMJ0014!|150=2|151=0|10=137|8=FIX.4.2|9=280|35=8|34=159|49=ICE|50=G|52=20140225-20:47:48.591|56=12000|57=1|143=0|369=100|1=0|6=0|11=120001000062|14=0|17=0000000000000000000000000000000000000026|20=0|37=00000000000000043|38=2|39=0|40=2|44=109.5|48=219696|54=2|55=IPE e-Brent|60=20140225-20:47:48|107=BRN FMJ0014!|150=0|151=2|10=056|8=FIX.4.2|9=296|35=8|34=160|49=ICE|50=G|52=20140225-20:47:48.842|56=12000|57=1|143=0|369=101|1=0|6=0|11=120001000063|14=0|17=0000000000000000000000000000000000000027|20=0|37=00000000000000043|38=2|39=4|40=2|41=120001000062|44=109.5|48=219696|54=2|55=IPE e-Brent|60=20140225-20:47:48|107=BRN FMJ0014!|150=4|151=2|10=048|8=FIX.4.2|9=291|35=8|34=161|49=ICE|50=G|52=20140225-20:47:49.094|56=12000|57=1|143=0|369=102|1=0|6=0|11=120001000064|14=0|17=0000000000000000000000000000000000000028|20=0|37=00000000000000044|38=1|39=0|40=2|44=109.479999999981|48=219696|54=1|55=IPE e-Brent|60=20140225-20:47:49|107=BRN FMJ0014!|150=0|151=1|10=158|8=FIX.4.2|9=307|35=8|34=162|49=ICE|50=G|52=20140225-20:47:59.372|56=12000|57=1|143=0|369=103|1=0|6=0|11=120001000065|14=0|17=0000000000000000000000000000000000000029|20=0|37=00000000000000022|38=1|39=4|40=2|41=120001000035|44=109.489999999991|48=219696|54=1|55=IPE e-Brent|60=20140225-20:47:59|107=BRN FMJ0014!|150=4|151=1|10=150|8=FIX.4.2|9=307|35=8|34=163|49=ICE|50=G|52=20140225-20:47:59.377|56=12000|57=1|143=0|369=110|1=0|6=0|11=120001000066|14=0|17=000000000000000000000000000000000000002A|20=0|37=00000000000000024|38=1|39=4|40=2|41=120001000037|44=109.489999999991|48=219696|54=1|55=IPE e-Brent|60=20140225-20:47:59|107=BRN FMJ0014!|150=4|151=1|10=167|8=FIX.4.2|9=307|35=8|34=164|49=ICE|50=G|52=20140225-20:47:59.377|56=12000|57=1|143=0|369=110|1=0|6=0|11=120001000067|14=0|17=000000000000000000000000000000000000002B|20=0|37=00000000000000025|38=1|39=4|40=2|41=120001000038|44=109.489999999991|48=219696|54=1|55=IPE e-Brent|60=20140225-20:47:59|107=BRN FMJ0014!|150=4|151=1|10=172|8=FIX.4.2|9=307|35=8|34=165|49=ICE|50=G|52=20140225-20:47:59.377|56=12000|57=1|143=0|369=110|1=0|6=0|11=120001000068|14=0|17=000000000000000000000000000000000000002C|20=0|37=00000000000000029|38=2|39=4|40=2|41=120001000044|44=109.489999999991|48=219696|54=1|55=IPE e-Brent|60=20140225-20:47:59|107=BRN FMJ0014!|150=4|151=2|10=178|8=FIX.4.2|9=307|35=8|34=166|49=ICE|50=G|52=20140225-20:47:59.377|56=12000|57=1|143=0|369=110|1=0|6=0|11=120001000069|14=0|17=000000000000000000000000000000000000002D|20=0|37=00000000000000032|38=1|39=4|40=2|41=120001000049|44=109.489999999991|48=219696|54=1|55=IPE e-Brent|60=20140225-20:47:59|107=BRN FMJ0014!|150=4|151=1|10=178|8=FIX.4.2|9=307|35=8|34=167|49=ICE|50=G|52=20140225-20:47:59.377|56=12000|57=1|143=0|369=110|1=0|6=0|11=120001000070|14=0|17=000000000000000000000000000000000000002E|20=0|37=00000000000000033|38=1|39=4|40=2|41=120001000050|44=109.489999999991|48=219696|54=1|55=IPE e-Brent|60=20140225-20:47:59|107=BRN FMJ0014!|150=4|151=1|10=165|8=FIX.4.2|9=307|35=8|34=168|49=ICE|50=G|52=20140225-20:47:59.378|56=12000|57=1|143=0|369=110|1=0|6=0|11=120001000071|14=0|17=000000000000000000000000000000000000002F|20=0|37=00000000000000036|38=1|39=4|40=2|41=120001000053|44=109.489999999991|48=219696|54=1|55=IPE e-Brent|60=20140225-20:47:59|107=BRN FMJ0014!|150=4|151=1|10=175|8=FIX.4.2|9=307|35=8|34=169|49=ICE|50=G|52=20140225-20:47:59.378|56=12000|57=1|143=0|369=110|1=0|6=0|11=120001000072|14=0|17=000000000000000000000000000000000000002G|20=0|37=00000000000000044|38=1|39=4|40=2|41=120001000064|44=109.479999999981|48=219696|54=1|55=IPE e-Brent|60=20140225-20:47:59|107=BRN FMJ0014!|150=4|151=1|10=177|8=FIX.4.2|9=291|35=8|34=170|49=ICE|50=G|52=20140225-20:47:59.628|56=12000|57=1|143=0|369=111|1=0|6=0|11=120001000073|14=0|17=000000000000000000000000000000000000002H|20=0|37=00000000000000045|38=2|39=0|40=2|44=109.479999999981|48=219696|54=1|55=IPE e-Brent|60=20140225-20:47:59|107=BRN FMJ0014!|150=0|151=2|10=182|8=FIX.4.2|9=280|35=8|34=171|49=ICE|50=G|52=20140225-20:47:59.632|56=12000|57=1|143=0|369=117|1=0|6=0|11=120001000074|14=0|17=000000000000000000000000000000000000002I|20=0|37=00000000000000046|38=2|39=0|40=2|44=109.5|48=219696|54=2|55=IPE e-Brent|60=20140225-20:47:59|107=BRN FMJ0014!|150=0|151=2|10=083|8=FIX.4.2|9=280|35=8|34=172|49=ICE|50=G|52=20140225-20:47:59.633|56=12000|57=1|143=0|369=117|1=0|6=0|11=120001000075|14=0|17=000000000000000000000000000000000000002J|20=0|37=00000000000000047|38=1|39=0|40=2|44=109.5|48=219696|54=2|55=IPE e-Brent|60=20140225-20:47:59|107=BRN FMJ0014!|150=0|151=1|10=086|8=FIX.4.2|9=280|35=8|34=173|49=ICE|50=G|52=20140225-20:47:59.633|56=12000|57=1|143=0|369=117|1=0|6=0|11=120001000076|14=0|17=000000000000000000000000000000000000002K|20=0|37=00000000000000048|38=1|39=0|40=2|44=109.5|48=219696|54=2|55=IPE e-Brent|60=20140225-20:47:59|107=BRN FMJ0014!|150=0|151=1|10=090|8=FIX.4.2|9=291|35=8|34=174|49=ICE|50=G|52=20140225-20:47:59.633|56=12000|57=1|143=0|369=117|1=0|6=0|11=120001000077|14=0|17=000000000000000000000000000000000000002L|20=0|37=00000000000000049|38=1|39=0|40=2|44=109.479999999981|48=219696|54=1|55=IPE e-Brent|60=20140225-20:47:59|107=BRN FMJ0014!|150=0|151=1|10=198|8=FIX.4.2|9=280|35=8|34=175|49=ICE|50=G|52=20140225-20:47:59.633|56=12000|57=1|143=0|369=117|1=0|6=0|11=120001000078|14=0|17=000000000000000000000000000000000000002M|20=0|37=00000000000000050|38=2|39=0|40=2|44=109.5|48=219696|54=2|55=IPE e-Brent|60=20140225-20:47:59|107=BRN FMJ0014!|150=0|151=2|10=091|8=FIX.4.2|9=291|35=8|34=176|49=ICE|50=G|52=20140225-20:47:59.633|56=12000|57=1|143=0|369=117|1=0|6=0|11=120001000079|14=0|17=000000000000000000000000000000000000002N|20=0|37=00000000000000051|38=2|39=0|40=2|44=109.479999999981|48=219696|54=1|55=IPE e-Brent|60=20140225-20:47:59|107=BRN FMJ0014!|150=0|151=2|10=199|8=FIX.4.2|9=280|35=8|34=177|49=ICE|50=G|52=20140225-20:47:59.638|56=12000|57=1|143=0|369=118|1=0|6=0|11=120001000080|14=0|17=000000000000000000000000000000000000002O|20=0|37=00000000000000052|38=2|39=0|40=2|44=109.5|48=219696|54=2|55=IPE e-Brent|60=20140225-20:47:59|107=BRN FMJ0014!|150=0|151=2|10=096|8=FIX.4.2|9=296|35=8|34=178|49=ICE|50=G|52=20140225-20:47:59.887|56=12000|57=1|143=0|369=119|1=0|6=0|11=120001000081|14=0|17=000000000000000000000000000000000000002P|20=0|37=00000000000000046|38=2|39=4|40=2|41=120001000074|44=109.5|48=219696|54=2|55=IPE e-Brent|60=20140225-20:47:59|107=BRN FMJ0014!|150=4|151=2|10=110|8=FIX.4.2|9=296|35=8|34=179|49=ICE|50=G|52=20140225-20:47:59.892|56=12000|57=1|143=0|369=123|1=0|6=0|11=120001000082|14=0|17=000000000000000000000000000000000000002Q|20=0|37=00000000000000047|38=1|39=4|40=2|41=120001000075|44=109.5|48=219696|54=2|55=IPE e-Brent|60=20140225-20:47:59|107=BRN FMJ0014!|150=4|151=1|10=104|8=FIX.4.2|9=296|35=8|34=180|49=ICE|50=G|52=20140225-20:47:59.892|56=12000|57=1|143=0|369=123|1=0|6=0|11=120001000083|14=0|17=000000000000000000000000000000000000002R|20=0|37=00000000000000050|38=2|39=4|40=2|41=120001000078|44=109.5|48=219696|54=2|55=IPE e-Brent|60=20140225-20:47:59|107=BRN FMJ0014!|150=4|151=2|10=097|8=FIX.4.2|9=307|35=8|34=181|49=ICE|50=G|52=20140225-20:47:59.892|56=12000|57=1|143=0|369=123|1=0|6=0|11=120001000084|14=0|17=000000000000000000000000000000000000002S|20=0|37=00000000000000051|38=2|39=4|40=2|41=120001000079|44=109.479999999981|48=219696|54=1|55=IPE e-Brent|60=20140225-20:47:59|107=BRN FMJ0014!|150=4|151=2|10=197|8=FIX.4.2|9=296|35=8|34=182|49=ICE|50=G|52=20140225-20:47:59.893|56=12000|57=1|143=0|369=123|1=0|6=0|11=120001000085|14=0|17=000000000000000000000000000000000000002T|20=0|37=00000000000000052|38=2|39=4|40=2|41=120001000080|44=109.5|48=219696|54=2|55=IPE e-Brent|60=20140225-20:47:59|107=BRN FMJ0014!|150=4|151=2|10=099|8=FIX.4.2|9=291|35=8|34=183|49=ICE|50=G|52=20140225-20:48:00.146|56=12000|57=1|143=0|369=124|1=0|6=0|11=120001000086|14=0|17=000000000000000000000000000000000000002U|20=0|37=00000000000000053|38=2|39=0|40=2|44=109.479999999981|48=219696|54=1|55=IPE e-Brent|60=20140225-20:48:00|107=BRN FMJ0014!|150=0|151=2|10=175|8=FIX.4.2|9=280|35=8|34=184|49=ICE|50=G|52=20140225-20:48:00.151|56=12000|57=1|143=0|369=128|1=0|6=0|11=120001000087|14=0|17=000000000000000000000000000000000000002V|20=0|37=00000000000000054|38=2|39=0|40=2|44=109.5|48=219696|54=2|55=IPE e-Brent|60=20140225-20:48:00|107=BRN FMJ0014!|150=0|151=2|10=075|8=FIX.4.2|9=291|35=8|34=185|49=ICE|50=G|52=20140225-20:48:00.151|56=12000|57=1|143=0|369=128|1=0|6=0|11=120001000088|14=0|17=000000000000000000000000000000000000002W|20=0|37=00000000000000055|38=1|39=0|40=2|44=109.479999999981|48=219696|54=1|55=IPE e-Brent|60=20140225-20:48:00|107=BRN FMJ0014!|150=0|151=1|10=181|8=FIX.4.2|9=291|35=8|34=186|49=ICE|50=G|52=20140225-20:48:00.151|56=12000|57=1|143=0|369=128|1=0|6=0|11=120001000089|14=0|17=000000000000000000000000000000000000002X|20=0|37=00000000000000056|38=1|39=0|40=2|44=109.479999999981|48=219696|54=1|55=IPE e-Brent|60=20140225-20:48:00|107=BRN FMJ0014!|150=0|151=1|10=185|8=FIX.4.2|9=291|35=8|34=187|49=ICE|50=G|52=20140225-20:48:00.152|56=12000|57=1|143=0|369=128|1=0|6=0|11=120001000090|14=0|17=000000000000000000000000000000000000002Y|20=0|37=00000000000000057|38=1|39=0|40=2|44=109.479999999981|48=219696|54=1|55=IPE e-Brent|60=20140225-20:48:00|107=BRN FMJ0014!|150=0|151=1|10=181|8=FIX.4.2|9=307|35=8|34=188|49=ICE|50=G|52=20140225-20:48:00.404|56=12000|57=1|143=0|369=129|1=0|6=0|11=120001000091|14=0|17=000000000000000000000000000000000000002Z|20=0|37=00000000000000055|38=1|39=4|40=2|41=120001000088|44=109.479999999981|48=219696|54=1|55=IPE e-Brent|60=20140225-20:48:00|107=BRN FMJ0014!|150=4|151=1|10=180|8=FIX.4.2|9=307|35=8|34=189|49=ICE|50=G|52=20140225-20:48:00.409|56=12000|57=1|143=0|369=130|1=0|6=0|11=120001000092|14=0|17=0000000000000000000000000000000000000030|20=0|37=00000000000000057|38=1|39=4|40=2|41=120001000090|44=109.479999999981|48=219696|54=1|55=IPE e-Brent|60=20140225-20:48:00|107=BRN FMJ0014!|150=4|151=1|10=133|8=FIX.4.2|9=291|35=8|34=190|49=ICE|50=G|52=20140225-20:48:00.658|56=12000|57=1|143=0|369=131|1=0|6=0|11=120001000093|14=0|17=0000000000000000000000000000000000000031|20=0|37=00000000000000058|38=1|39=0|40=2|44=109.479999999981|48=219696|54=1|55=IPE e-Brent|60=20140225-20:48:00|107=BRN FMJ0014!|150=0|151=1|10=145|8=FIX.4.2|9=280|35=8|34=191|49=ICE|50=G|52=20140225-20:48:00.662|56=12000|57=1|143=0|369=132|1=0|6=0|11=120001000094|14=0|17=0000000000000000000000000000000000000032|20=0|37=00000000000000059|38=2|39=0|40=2|44=109.5|48=219696|54=2|55=IPE e-Brent|60=20140225-20:48:00|107=BRN FMJ0014!|150=0|151=2|10=043|8=FIX.4.2|9=294|35=8|34=192|49=ICE|50=G|52=20140225-20:48:01.078|56=12000|57=1|143=0|369=132|1=0|6=0|11=120001000076|14=1|17=0000000000000000000000000000000000000033|20=0|31=109.5|32=1|37=00000000000000048|38=1|39=2|40=2|44=109.5|48=219696|54=2|55=IPE e-Brent|60=20140225-20:48:01|107=BRN FMJ0014!|150=2|151=0|10=168|8=FIX.4.2|9=294|35=8|34=193|49=ICE|50=G|52=20140225-20:48:01.079|56=12000|57=1|143=0|369=132|1=0|6=0|11=120001000087|14=2|17=0000000000000000000000000000000000000034|20=0|31=109.5|32=2|37=00000000000000054|38=2|39=2|40=2|44=109.5|48=219696|54=2|55=IPE e-Brent|60=20140225-20:48:01|107=BRN FMJ0014!|150=2|151=0|10=173|8=FIX.4.2|9=294|35=8|34=194|49=ICE|50=G|52=20140225-20:48:01.079|56=12000|57=1|143=0|369=132|1=0|6=0|11=120001000094|14=2|17=0000000000000000000000000000000000000035|20=0|31=109.5|32=2|37=00000000000000059|38=2|39=2|40=2|44=109.5|48=219696|54=2|55=IPE e-Brent|60=20140225-20:48:01|107=BRN FMJ0014!|150=2|151=0|10=178|8=FIX.4.2|9=280|35=8|34=195|49=ICE|50=G|52=20140225-20:48:01.164|56=12000|57=1|143=0|369=133|1=0|6=0|11=120001000095|14=0|17=0000000000000000000000000000000000000036|20=0|37=00000000000000060|38=2|39=0|40=2|44=109.5|48=219696|54=2|55=IPE e-Brent|60=20140225-20:48:01|107=BRN FMJ0014!|150=0|151=2|10=044|8=FIX.4.2|9=280|35=8|34=196|49=ICE|50=G|52=20140225-20:48:01.168|56=12000|57=1|143=0|369=135|1=0|6=0|11=120001000096|14=0|17=0000000000000000000000000000000000000037|20=0|37=00000000000000061|38=1|39=0|40=2|44=109.5|48=219696|54=2|55=IPE e-Brent|60=20140225-20:48:01|107=BRN FMJ0014!|150=0|151=1|10=052|8=FIX.4.2|9=291|35=8|34=197|49=ICE|50=G|52=20140225-20:48:01.169|56=12000|57=1|143=0|369=135|1=0|6=0|11=120001000097|14=0|17=0000000000000000000000000000000000000038|20=0|37=00000000000000062|38=2|39=0|40=2|44=109.479999999981|48=219696|54=1|55=IPE e-Brent|60=20140225-20:48:01|107=BRN FMJ0014!|150=0|151=2|10=163|8=FIX.4.2|9=294|35=8|34=198|49=ICE|50=G|52=20140225-20:48:04.156|56=12000|57=1|143=0|369=135|1=0|6=0|11=120001000095|14=2|17=0000000000000000000000000000000000000039|20=0|31=109.5|32=2|37=00000000000000060|38=2|39=2|40=2|44=109.5|48=219696|54=2|55=IPE e-Brent|60=20140225-20:48:04|107=BRN FMJ0014!|150=2|151=0|10=184|8=FIX.4.2|9=294|35=8|34=199|49=ICE|50=G|52=20140225-20:48:04.156|56=12000|57=1|143=0|369=135|1=0|6=0|11=120001000096|14=1|17=000000000000000000000000000000000000003A|20=0|31=109.5|32=1|37=00000000000000061|38=1|39=2|40=2|44=109.5|48=219696|54=2|55=IPE e-Brent|60=20140225-20:48:04|107=BRN FMJ0014!|150=2|151=0|10=192|8=FIX.4.2|9=280|35=8|34=200|49=ICE|50=G|52=20140225-20:48:04.177|56=12000|57=1|143=0|369=136|1=0|6=0|11=120001000098|14=0|17=000000000000000000000000000000000000003B|20=0|37=00000000000000063|38=1|39=0|40=2|44=109.5|48=219696|54=2|55=IPE e-Brent|60=20140225-20:48:04|107=BRN FMJ0014!|150=0|151=1|10=060|8=FIX.4.2|9=291|35=8|34=201|49=ICE|50=G|52=20140225-20:48:04.181|56=12000|57=1|143=0|369=137|1=0|6=0|11=120001000099|14=0|17=000000000000000000000000000000000000003C|20=0|37=00000000000000064|38=1|39=0|40=2|44=109.479999999981|48=219696|54=1|55=IPE e-Brent|60=20140225-20:48:04|107=BRN FMJ0014!|150=0|151=1|10=164|8=FIX.4.2|9=294|35=8|34=202|49=ICE|50=G|52=20140225-20:48:04.185|56=12000|57=1|143=0|369=137|1=0|6=0|11=120001000098|14=1|17=000000000000000000000000000000000000003D|20=0|31=109.5|32=1|37=00000000000000063|38=1|39=2|40=2|44=109.5|48=219696|54=2|55=IPE e-Brent|60=20140225-20:48:04|107=BRN FMJ0014!|150=2|151=0|10=188|8=FIX.4.2|9=307|35=8|34=203|49=ICE|50=G|52=20140225-20:48:04.430|56=12000|57=1|143=0|369=138|1=0|6=0|11=120001000100|14=0|17=000000000000000000000000000000000000003E|20=0|37=00000000000000064|38=1|39=4|40=2|41=120001000099|44=109.479999999981|48=219696|54=1|55=IPE e-Brent|60=20140225-20:48:04|107=BRN FMJ0014!|150=4|151=1|10=148|8=FIX.4.2|9=291|35=8|34=204|49=ICE|50=G|52=20140225-20:48:04.434|56=12000|57=1|143=0|369=139|1=0|6=0|11=120001000101|14=0|17=000000000000000000000000000000000000003F|20=0|37=00000000000000065|38=2|39=0|40=2|44=109.479999999981|48=219696|54=1|55=IPE e-Brent|60=20140225-20:48:04|107=BRN FMJ0014!|150=0|151=2|10=160|8=FIX.4.2|9=291|35=8|34=205|49=ICE|50=G|52=20140225-20:48:04.683|56=12000|57=1|143=0|369=140|1=0|6=0|11=120001000102|14=0|17=000000000000000000000000000000000000003G|20=0|37=00000000000000066|38=2|39=0|40=2|44=109.479999999981|48=219696|54=1|55=IPE e-Brent|60=20140225-20:48:04|107=BRN FMJ0014!|150=0|151=2|10=162|8=FIX.4.2|9=307|35=8|34=206|49=ICE|50=G|52=20140225-20:48:04.687|56=12000|57=1|143=0|369=141|1=0|6=0|11=120001000103|14=0|17=000000000000000000000000000000000000003H|20=0|37=00000000000000065|38=2|39=4|40=2|41=120001000101|44=109.479999999981|48=219696|54=1|55=IPE e-Brent|60=20140225-20:48:04|107=BRN FMJ0014!|150=4|151=2|10=152|8=FIX.4.2|9=291|35=8|34=207|49=ICE|50=G|52=20140225-20:48:04.935|56=12000|57=1|143=0|369=142|1=0|6=0|11=120001000104|14=0|17=000000000000000000000000000000000000003I|20=0|37=00000000000000067|38=2|39=0|40=2|44=109.479999999981|48=219696|54=1|55=IPE e-Brent|60=20140225-20:48:04|107=BRN FMJ0014!|150=0|151=2|10=171|8=FIX.4.2|9=307|35=8|34=208|49=ICE|50=G|52=20140225-20:48:15.220|56=12000|57=1|143=0|369=143|1=0|6=0|11=120001000105|14=0|17=000000000000000000000000000000000000003J|20=0|37=00000000000000056|38=1|39=4|40=2|41=120001000089|44=109.479999999981|48=219696|54=1|55=IPE e-Brent|60=20140225-20:48:15|107=BRN FMJ0014!|150=4|151=1|10=160|8=FIX.4.2|9=307|35=8|34=209|49=ICE|50=G|52=20140225-20:48:15.225|56=12000|57=1|143=0|369=150|1=0|6=0|11=120001000106|14=0|17=000000000000000000000000000000000000003K|20=0|37=00000000000000058|38=1|39=4|40=2|41=120001000093|44=109.479999999981|48=219696|54=1|55=IPE e-Brent|60=20140225-20:48:15|107=BRN FMJ0014!|150=4|151=1|10=163|8=FIX.4.2|9=307|35=8|34=210|49=ICE|50=G|52=20140225-20:48:15.225|56=12000|57=1|143=0|369=150|1=0|6=0|11=120001000107|14=0|17=000000000000000000000000000000000000003L|20=0|37=00000000000000062|38=2|39=4|40=2|41=120001000097|44=109.479999999981|48=219696|54=1|55=IPE e-Brent|60=20140225-20:48:15|107=BRN FMJ0014!|150=4|151=2|10=158|8=FIX.4.2|9=307|35=8|34=211|49=ICE|50=G|52=20140225-20:48:15.225|56=12000|57=1|143=0|369=150|1=0|6=0|11=120001000108|14=0|17=000000000000000000000000000000000000003M|20=0|37=00000000000000066|38=2|39=4|40=2|41=120001000102|44=109.479999999981|48=219696|54=1|55=IPE e-Brent|60=20140225-20:48:15|107=BRN FMJ0014!|150=4|151=2|10=152|8=FIX.4.2|9=307|35=8|34=212|49=ICE|50=G|52=20140225-20:48:15.225|56=12000|57=1|143=0|369=150|1=0|6=0|11=120001000109|14=0|17=000000000000000000000000000000000000003N|20=0|37=00000000000000067|38=2|39=4|40=2|41=120001000104|44=109.479999999981|48=219696|54=1|55=IPE e-Brent|60=20140225-20:48:15|107=BRN FMJ0014!|150=4|151=2|10=158|8=FIX.4.2|9=307|35=8|34=213|49=ICE|50=G|52=20140225-20:48:15.226|56=12000|57=1|143=0|369=150|1=0|6=0|11=120001000110|14=0|17=000000000000000000000000000000000000003O|20=0|37=00000000000000045|38=2|39=4|40=2|41=120001000073|44=109.479999999981|48=219696|54=1|55=IPE e-Brent|60=20140225-20:48:15|107=BRN FMJ0014!|150=4|151=2|10=154|8=FIX.4.2|9=307|35=8|34=214|49=ICE|50=G|52=20140225-20:48:15.226|56=12000|57=1|143=0|369=150|1=0|6=0|11=120001000111|14=0|17=000000000000000000000000000000000000003P|20=0|37=00000000000000049|38=1|39=4|40=2|41=120001000077|44=109.479999999981|48=219696|54=1|55=IPE e-Brent|60=20140225-20:48:15|107=BRN FMJ0014!|150=4|151=1|10=163|8=FIX.4.2|9=307|35=8|34=215|49=ICE|50=G|52=20140225-20:48:15.226|56=12000|57=1|143=0|369=150|1=0|6=0|11=120001000112|14=0|17=000000000000000000000000000000000000003Q|20=0|37=00000000000000053|38=2|39=4|40=2|41=120001000086|44=109.479999999981|48=219696|54=1|55=IPE e-Brent|60=20140225-20:48:15|107=BRN FMJ0014!|150=4|151=2|10=163|8=FIX.4.2|9=291|35=8|34=216|49=ICE|50=G|52=20140225-20:48:15.477|56=12000|57=1|143=0|369=151|1=0|6=0|11=120001000113|14=0|17=000000000000000000000000000000000000003R|20=0|37=00000000000000068|38=2|39=0|40=2|44=109.479999999981|48=219696|54=1|55=IPE e-Brent|60=20140225-20:48:15|107=BRN FMJ0014!|150=0|151=2|10=186|8=FIX.4.2|9=280|35=8|34=217|49=ICE|50=G|52=20140225-20:48:15.482|56=12000|57=1|143=0|369=157|1=0|6=0|11=120001000114|14=0|17=000000000000000000000000000000000000003S|20=0|37=00000000000000069|38=2|39=0|40=2|44=109.5|48=219696|54=2|55=IPE e-Brent|60=20140225-20:48:15|107=BRN FMJ0014!|150=0|151=2|10=088|8=FIX.4.2|9=291|35=8|34=218|49=ICE|50=G|52=20140225-20:48:15.482|56=12000|57=1|143=0|369=158|1=0|6=0|11=120001000115|14=0|17=000000000000000000000000000000000000003T|20=0|37=00000000000000070|38=1|39=0|40=2|44=109.479999999981|48=219696|54=1|55=IPE e-Brent|60=20140225-20:48:15|107=BRN FMJ0014!|150=0|151=1|10=186|8=FIX.4.2|9=280|35=8|34=219|49=ICE|50=G|52=20140225-20:48:15.483|56=12000|57=1|143=0|369=158|1=0|6=0|11=120001000116|14=0|17=000000000000000000000000000000000000003U|20=0|37=00000000000000071|38=2|39=0|40=2|44=109.5|48=219696|54=2|55=IPE e-Brent|60=20140225-20:48:15|107=BRN FMJ0014!|150=0|151=2|10=089|8=FIX.4.2|9=291|35=8|34=220|49=ICE|50=G|52=20140225-20:48:15.484|56=12000|57=1|143=0|369=158|1=0|6=0|11=120001000117|14=0|17=000000000000000000000000000000000000003V|20=0|37=00000000000000072|38=2|39=0|40=2|44=109.479999999981|48=219696|54=1|55=IPE e-Brent|60=20140225-20:48:15|107=BRN FMJ0014!|150=0|151=2|10=189|8=FIX.4.2|9=291|35=8|34=221|49=ICE|50=G|52=20140225-20:48:15.484|56=12000|57=1|143=0|369=158|1=0|6=0|11=120001000118|14=0|17=000000000000000000000000000000000000003W|20=0|37=00000000000000073|38=1|39=0|40=2|44=109.479999999981|48=219696|54=1|55=IPE e-Brent|60=20140225-20:48:15|107=BRN FMJ0014!|150=0|151=1|10=191|8=FIX.4.2|9=291|35=8|34=222|49=ICE|50=G|52=20140225-20:48:15.484|56=12000|57=1|143=0|369=158|1=0|6=0|11=120001000119|14=0|17=000000000000000000000000000000000000003X|20=0|37=00000000000000074|38=2|39=0|40=2|44=109.479999999981|48=219696|54=1|55=IPE e-Brent|60=20140225-20:48:15|107=BRN FMJ0014!|150=0|151=2|10=197|8=FIX.4.2|9=280|35=8|34=223|49=ICE|50=G|52=20140225-20:48:15.486|56=12000|57=1|143=0|369=158|1=0|6=0|11=120001000120|14=0|17=000000000000000000000000000000000000003Y|20=0|37=00000000000000075|38=2|39=0|40=2|44=109.5|48=219696|54=2|55=IPE e-Brent|60=20140225-20:48:15|107=BRN FMJ0014!|150=0|151=2|10=090|8=FIX.4.2|9=307|35=8|34=224|49=ICE|50=G|52=20140225-20:48:15.736|56=12000|57=1|143=0|369=159|1=0|6=0|11=120001000121|14=0|17=000000000000000000000000000000000000003Z|20=0|37=00000000000000070|38=1|39=4|40=2|41=120001000115|44=109.479999999981|48=219696|54=1|55=IPE e-Brent|60=20140225-20:48:15|107=BRN FMJ0014!|150=4|151=1|10=177|8=FIX.4.2|9=296|35=8|34=225|49=ICE|50=G|52=20140225-20:48:15.740|56=12000|57=1|143=0|369=160|1=0|6=0|11=120001000122|14=0|17=0000000000000000000000000000000000000040|20=0|37=00000000000000075|38=2|39=4|40=2|41=120001000120|44=109.5|48=219696|54=2|55=IPE e-Brent|60=20140225-20:48:15|107=BRN FMJ0014!|150=4|151=2|10=033|8=FIX.4.2|9=291|35=8|34=226|49=ICE|50=G|52=20140225-20:48:15.991|56=12000|57=1|143=0|369=161|1=0|6=0|11=120001000123|14=0|17=0000000000000000000000000000000000000041|20=0|37=00000000000000076|38=2|39=0|40=2|44=109.479999999981|48=219696|54=1|55=IPE e-Brent|60=20140225-20:48:15|107=BRN FMJ0014!|150=0|151=2|10=157|8=FIX.4.2|9=280|35=8|34=227|49=ICE|50=G|52=20140225-20:48:15.995|56=12000|57=1|143=0|369=162|1=0|6=0|11=120001000124|14=0|17=0000000000000000000000000000000000000042|20=0|37=00000000000000077|38=2|39=0|40=2|44=109.5|48=219696|54=2|55=IPE e-Brent|60=20140225-20:48:15|107=BRN FMJ0014!|150=0|151=2|10=062|8=FIX.4.2|9=294|35=8|34=228|49=ICE|50=G|52=20140225-20:48:16.345|56=12000|57=1|143=0|369=162|1=0|6=0|11=120001000114|14=2|17=0000000000000000000000000000000000000043|20=0|31=109.5|32=2|37=00000000000000069|38=2|39=2|40=2|44=109.5|48=219696|54=2|55=IPE e-Brent|60=20140225-20:48:16|107=BRN FMJ0014!|150=2|151=0|10=180|8=FIX.4.2|9=294|35=8|34=229|49=ICE|50=G|52=20140225-20:48:16.345|56=12000|57=1|143=0|369=162|1=0|6=0|11=120001000116|14=2|17=0000000000000000000000000000000000000044|20=0|31=109.5|32=2|37=00000000000000071|38=2|39=2|40=2|44=109.5|48=219696|54=2|55=IPE e-Brent|60=20140225-20:48:16|107=BRN FMJ0014!|150=2|151=0|10=177|8=FIX.4.2|9=294|35=8|34=230|49=ICE|50=G|52=20140225-20:48:16.346|56=12000|57=1|143=0|369=162|1=0|6=0|11=120001000124|14=2|17=0000000000000000000000000000000000000045|20=0|31=109.5|32=2|37=00000000000000077|38=2|39=2|40=2|44=109.5|48=219696|54=2|55=IPE e-Brent|60=20140225-20:48:16|107=BRN FMJ0014!|150=2|151=0|10=176|8=FIX.4.2|9=291|35=8|34=231|49=ICE|50=G|52=20140225-20:48:16.497|56=12000|57=1|143=0|369=163|1=0|6=0|11=120001000125|14=0|17=0000000000000000000000000000000000000046|20=0|37=00000000000000078|38=1|39=0|40=2|44=109.479999999981|48=219696|54=1|55=IPE e-Brent|60=20140225-20:48:16|107=BRN FMJ0014!|150=0|151=1|10=165|8=FIX.4.2|9=291|35=8|34=232|49=ICE|50=G|52=20140225-20:48:16.502|56=12000|57=1|143=0|369=165|1=0|6=0|11=120001000126|14=0|17=0000000000000000000000000000000000000047|20=0|37=00000000000000079|38=1|39=0|40=2|44=109.479999999981|48=219696|54=1|55=IPE e-Brent|60=20140225-20:48:16|107=BRN FMJ0014!|150=0|151=1|10=158|8=FIX.4.2|9=291|35=8|34=233|49=ICE|50=G|52=20140225-20:48:16.502|56=12000|57=1|143=0|369=165|1=0|6=0|11=120001000127|14=0|17=0000000000000000000000000000000000000048|20=0|37=00000000000000080|38=2|39=0|40=2|44=109.479999999981|48=219696|54=1|55=IPE e-Brent|60=20140225-20:48:16|107=BRN FMJ0014!|150=0|151=2|10=155|8=FIX.4.2|9=307|35=8|34=234|49=ICE|50=G|52=20140225-20:48:16.751|56=12000|57=1|143=0|369=166|1=0|6=0|11=120001000128|14=0|17=0000000000000000000000000000000000000049|20=0|37=00000000000000078|38=1|39=4|40=2|41=120001000125|44=109.479999999981|48=219696|54=1|55=IPE e-Brent|60=20140225-20:48:16|107=BRN FMJ0014!|150=4|151=1|10=159|8=FIX.4.2|9=307|35=8|34=235|49=ICE|50=G|52=20140225-20:48:16.755|56=12000|57=1|143=0|369=167|1=0|6=0|11=120001000129|14=0|17=000000000000000000000000000000000000004A|20=0|37=00000000000000080|38=2|39=4|40=2|41=120001000127|44=109.479999999981|48=219696|54=1|55=IPE e-Brent|60=20140225-20:48:16|107=BRN FMJ0014!|150=4|151=2|10=171|8=FIX.4.2|9=280|35=8|34=236|49=ICE|50=G|52=20140225-20:48:17.004|56=12000|57=1|143=0|369=168|1=0|6=0|11=120001000130|14=0|17=000000000000000000000000000000000000004B|20=0|37=00000000000000081|38=1|39=0|40=2|44=109.5|48=219696|54=2|55=IPE e-Brent|60=20140225-20:48:17|107=BRN FMJ0014!|150=0|151=1|10=059|8=FIX.4.2|9=291|35=8|34=237|49=ICE|50=G|52=20140225-20:48:17.009|56=12000|57=1|143=0|369=169|1=0|6=0|11=120001000131|14=0|17=000000000000000000000000000000000000004C|20=0|37=00000000000000082|38=2|39=0|40=2|44=109.479999999981|48=219696|54=1|55=IPE e-Brent|60=20140225-20:48:17|107=BRN FMJ0014!|150=0|151=2|10=175|8=FIX.4.2|9=307|35=8|34=238|49=ICE|50=G|52=20140225-20:48:17.257|56=12000|57=1|143=0|369=170|1=0|6=0|11=120001000132|14=0|17=000000000000000000000000000000000000004D|20=0|37=00000000000000082|38=2|39=4|40=2|41=120001000131|44=109.479999999981|48=219696|54=1|55=IPE e-Brent|60=20140225-20:48:17|107=BRN FMJ0014!|150=4|151=2|10=161|8=FIX.4.2|9=291|35=8|34=239|49=ICE|50=G|52=20140225-20:48:17.510|56=12000|57=1|143=0|369=171|1=0|6=0|11=120001000133|14=0|17=000000000000000000000000000000000000004E|20=0|37=00000000000000083|38=1|39=0|40=2|44=109.479999999981|48=219696|54=1|55=IPE e-Brent|60=20140225-20:48:17|107=BRN FMJ0014!|150=0|151=1|10=170|8=FIX.4.2|9=294|35=8|34=240|49=ICE|50=G|52=20140225-20:48:17.614|56=12000|57=1|143=0|369=171|1=0|6=0|11=120001000130|14=1|17=000000000000000000000000000000000000004F|20=0|31=109.5|32=1|37=00000000000000081|38=1|39=2|40=2|44=109.5|48=219696|54=2|55=IPE e-Brent|60=20140225-20:48:17|107=BRN FMJ0014!|150=2|151=0|10=183|8=FIX.4.2|9=291|35=8|34=241|49=ICE|50=G|52=20140225-20:48:17.763|56=12000|57=1|143=0|369=172|1=0|6=0|11=120001000134|14=0|17=000000000000000000000000000000000000004G|20=0|37=00000000000000084|38=1|39=0|40=2|44=109.479999999981|48=219696|54=1|55=IPE e-Brent|60=20140225-20:48:17|107=BRN FMJ0014!|150=0|151=1|10=178|8=FIX.4.2|9=307|35=8|34=242|49=ICE|50=G|52=20140225-20:48:28.038|56=12000|57=1|143=0|369=173|1=0|6=0|11=120001000135|14=0|17=000000000000000000000000000000000000004H|20=0|37=00000000000000068|38=2|39=4|40=2|41=120001000113|44=109.479999999981|48=219696|54=1|55=IPE e-Brent|60=20140225-20:48:28|107=BRN FMJ0014!|150=4|151=2|10=171|8=FIX.4.2|9=307|35=8|34=243|49=ICE|50=G|52=20140225-20:48:28.042|56=12000|57=1|143=0|369=180|1=0|6=0|11=120001000136|14=0|17=000000000000000000000000000000000000004I|20=0|37=00000000000000072|38=2|39=4|40=2|41=120001000117|44=109.479999999981|48=219696|54=1|55=IPE e-Brent|60=20140225-20:48:28|107=BRN FMJ0014!|150=4|151=2|10=166|8=FIX.4.2|9=307|35=8|34=244|49=ICE|50=G|52=20140225-20:48:28.043|56=12000|57=1|143=0|369=180|1=0|6=0|11=120001000137|14=0|17=000000000000000000000000000000000000004J|20=0|37=00000000000000073|38=1|39=4|40=2|41=120001000118|44=109.479999999981|48=219696|54=1|55=IPE e-Brent|60=20140225-20:48:28|107=BRN FMJ0014!|150=4|151=1|10=170|8=FIX.4.2|9=307|35=8|34=245|49=ICE|50=G|52=20140225-20:48:28.043|56=12000|57=1|143=0|369=180|1=0|6=0|11=120001000138|14=0|17=000000000000000000000000000000000000004K|20=0|37=00000000000000074|38=2|39=4|40=2|41=120001000119|44=109.479999999981|48=219696|54=1|55=IPE e-Brent|60=20140225-20:48:28|107=BRN FMJ0014!|150=4|151=2|10=177|8=FIX.4.2|9=307|35=8|34=246|49=ICE|50=G|52=20140225-20:48:28.043|56=12000|57=1|143=0|369=180|1=0|6=0|11=120001000139|14=0|17=000000000000000000000000000000000000004L|20=0|37=00000000000000076|38=2|39=4|40=2|41=120001000123|44=109.479999999981|48=219696|54=1|55=IPE e-Brent|60=20140225-20:48:28|107=BRN FMJ0014!|150=4|151=2|10=177|8=FIX.4.2|9=307|35=8|34=247|49=ICE|50=G|52=20140225-20:48:28.043|56=12000|57=1|143=0|369=180|1=0|6=0|11=120001000140|14=0|17=000000000000000000000000000000000000004M|20=0|37=00000000000000079|38=1|39=4|40=2|41=120001000126|44=109.479999999981|48=219696|54=1|55=IPE e-Brent|60=20140225-20:48:28|107=BRN FMJ0014!|150=4|151=1|10=175|8=FIX.4.2|9=307|35=8|34=248|49=ICE|50=G|52=20140225-20:48:28.043|56=12000|57=1|143=0|369=180|1=0|6=0|11=120001000141|14=0|17=000000000000000000000000000000000000004N|20=0|37=00000000000000083|38=1|39=4|40=2|41=120001000133|44=109.479999999981|48=219696|54=1|55=IPE e-Brent|60=20140225-20:48:28|107=BRN FMJ0014!|150=4|151=1|10=171|8=FIX.4.2|9=307|35=8|34=249|49=ICE|50=G|52=20140225-20:48:28.043|56=12000|57=1|143=0|369=180|1=0|6=0|11=120001000142|14=0|17=000000000000000000000000000000000000004O|20=0|37=00000000000000084|38=1|39=4|40=2|41=120001000134|44=109.479999999981|48=219696|54=1|55=IPE e-Brent|60=20140225-20:48:28|107=BRN FMJ0014!|150=4|151=1|10=176|8=FIX.4.2|9=280|35=8|34=250|49=ICE|50=G|52=20140225-20:48:28.293|56=12000|57=1|143=0|369=181|1=0|6=0|11=120001000143|14=0|17=000000000000000000000000000000000000004P|20=0|37=00000000000000085|38=1|39=0|40=2|44=109.5|48=219696|54=2|55=IPE e-Brent|60=20140225-20:48:28|107=BRN FMJ0014!|150=0|151=1|10=086|8=FIX.4.2|9=291|35=8|34=251|49=ICE|50=G|52=20140225-20:48:28.298|56=12000|57=1|143=0|369=186|1=0|6=0|11=120001000144|14=0|17=000000000000000000000000000000000000004Q|20=0|37=00000000000000086|38=2|39=0|40=2|44=109.479999999981|48=219696|54=1|55=IPE e-Brent|60=20140225-20:48:28|107=BRN FMJ0014!|150=0|151=2|10=206|8=FIX.4.2|9=291|35=8|34=252|49=ICE|50=G|52=20140225-20:48:28.298|56=12000|57=1|143=0|369=186|1=0|6=0|11=120001000145|14=0|17=000000000000000000000000000000000000004R|20=0|37=00000000000000087|38=1|39=0|40=2|44=109.479999999981|48=219696|54=1|55=IPE e-Brent|60=20140225-20:48:28|107=BRN FMJ0014!|150=0|151=1|10=208|8=FIX.4.2|9=280|35=8|34=253|49=ICE|50=G|52=20140225-20:48:28.299|56=12000|57=1|143=0|369=186|1=0|6=0|11=120001000146|14=0|17=000000000000000000000000000000000000004S|20=0|37=00000000000000088|38=1|39=0|40=2|44=109.5|48=219696|54=2|55=IPE e-Brent|60=20140225-20:48:28|107=BRN FMJ0014!|150=0|151=1|10=109|8=FIX.4.2|9=291|35=8|34=254|49=ICE|50=G|52=20140225-20:48:28.299|56=12000|57=1|143=0|369=186|1=0|6=0|11=120001000147|14=0|17=000000000000000000000000000000000000004T|20=0|37=00000000000000089|38=1|39=0|40=2|44=109.479999999981|48=219696|54=1|55=IPE e-Brent|60=20140225-20:48:28|107=BRN FMJ0014!|150=0|151=1|10=217|8=FIX.4.2|9=280|35=8|34=255|49=ICE|50=G|52=20140225-20:48:28.299|56=12000|57=1|143=0|369=186|1=0|6=0|11=120001000148|14=0|17=000000000000000000000000000000000000004U|20=0|37=00000000000000090|38=2|39=0|40=2|44=109.5|48=219696|54=2|55=IPE e-Brent|60=20140225-20:48:28|107=BRN FMJ0014!|150=0|151=2|10=110|8=FIX.4.2|9=280|35=8|34=256|49=ICE|50=G|52=20140225-20:48:28.304|56=12000|57=1|143=0|369=188|1=0|6=0|11=120001000149|14=0|17=000000000000000000000000000000000000004V|20=0|37=00000000000000091|38=2|39=0|40=2|44=109.5|48=219696|54=2|55=IPE e-Brent|60=20140225-20:48:28|107=BRN FMJ0014!|150=0|151=2|10=103|8=FIX.4.2|9=280|35=8|34=257|49=ICE|50=G|52=20140225-20:48:28.304|56=12000|57=1|143=0|369=188|1=0|6=0|11=120001000150|14=0|17=000000000000000000000000000000000000004W|20=0|37=00000000000000092|38=2|39=0|40=2|44=109.5|48=219696|54=2|55=IPE e-Brent|60=20140225-20:48:28|107=BRN FMJ0014!|150=0|151=2|10=098|8=FIX.4.2|9=307|35=8|34=258|49=ICE|50=G|52=20140225-20:48:28.551|56=12000|57=1|143=0|369=189|1=0|6=0|11=120001000151|14=0|17=000000000000000000000000000000000000004X|20=0|37=00000000000000087|38=1|39=4|40=2|41=120001000145|44=109.479999999981|48=219696|54=1|55=IPE e-Brent|60=20140225-20:48:28|107=BRN FMJ0014!|150=4|151=1|10=203|8=FIX.4.2|9=296|35=8|34=259|49=ICE|50=G|52=20140225-20:48:28.555|56=12000|57=1|143=0|369=190|1=0|6=0|11=120001000152|14=0|17=000000000000000000000000000000000000004Y|20=0|37=00000000000000088|38=1|39=4|40=2|41=120001000146|44=109.5|48=219696|54=2|55=IPE e-Brent|60=20140225-20:48:28|107=BRN FMJ0014!|150=4|151=1|10=109|8=FIX.4.2|9=294|35=8|34=260|49=ICE|50=G|52=20140225-20:48:28.734|56=12000|57=1|143=0|369=190|1=0|6=0|11=120001000143|14=1|17=000000000000000000000000000000000000004Z|20=0|31=109.5|32=1|37=00000000000000085|38=1|39=2|40=2|44=109.5|48=219696|54=2|55=IPE e-Brent|60=20140225-20:48:28|107=BRN FMJ0014!|150=2|151=0|10=221|8=FIX.4.2|9=294|35=8|34=261|49=ICE|50=G|52=20140225-20:48:28.735|56=12000|57=1|143=0|369=190|1=0|6=0|11=120001000148|14=2|17=0000000000000000000000000000000000000050|20=0|31=109.5|32=2|37=00000000000000090|38=2|39=2|40=2|44=109.5|48=219696|54=2|55=IPE e-Brent|60=20140225-20:48:28|107=BRN FMJ0014!|150=2|151=0|10=186|8=FIX.4.2|9=294|35=8|34=262|49=ICE|50=G|52=20140225-20:48:28.735|56=12000|57=1|143=0|369=190|1=0|6=0|11=120001000149|14=2|17=0000000000000000000000000000000000000051|20=0|31=109.5|32=2|37=00000000000000091|38=2|39=2|40=2|44=109.5|48=219696|54=2|55=IPE e-Brent|60=20140225-20:48:28|107=BRN FMJ0014!|150=2|151=0|10=190|8=FIX.4.2|9=294|35=8|34=263|49=ICE|50=G|52=20140225-20:48:28.735|56=12000|57=1|143=0|369=190|1=0|6=0|11=120001000150|14=2|17=0000000000000000000000000000000000000052|20=0|31=109.5|32=2|37=00000000000000092|38=2|39=2|40=2|44=109.5|48=219696|54=2|55=IPE e-Brent|60=20140225-20:48:28|107=BRN FMJ0014!|150=2|151=0|10=185|8=FIX.4.2|9=291|35=8|34=264|49=ICE|50=G|52=20140225-20:48:28.805|56=12000|57=1|143=0|369=191|1=0|6=0|11=120001000153|14=0|17=0000000000000000000000000000000000000053|20=0|37=00000000000000093|38=1|39=0|40=2|44=109.479999999981|48=219696|54=1|55=IPE e-Brent|60=20140225-20:48:28|107=BRN FMJ0014!|150=0|151=1|10=167|8=FIX.4.2|9=280|35=8|34=265|49=ICE|50=G|52=20140225-20:48:28.810|56=12000|57=1|143=0|369=196|1=0|6=0|11=120001000154|14=0|17=0000000000000000000000000000000000000054|20=0|37=00000000000000094|38=2|39=0|40=2|44=109.5|48=219696|54=2|55=IPE e-Brent|60=20140225-20:48:28|107=BRN FMJ0014!|150=0|151=2|10=070|8=FIX.4.2|9=291|35=8|34=266|49=ICE|50=G|52=20140225-20:48:28.810|56=12000|57=1|143=0|369=196|1=0|6=0|11=120001000155|14=0|17=0000000000000000000000000000000000000055|20=0|37=00000000000000095|38=2|39=0|40=2|44=109.479999999981|48=219696|54=1|55=IPE e-Brent|60=20140225-20:48:28|107=BRN FMJ0014!|150=0|151=2|10=178|8=FIX.4.2|9=291|35=8|34=267|49=ICE|50=G|52=20140225-20:48:28.810|56=12000|57=1|143=0|369=196|1=0|6=0|11=120001000156|14=0|17=0000000000000000000000000000000000000056|20=0|37=00000000000000096|38=2|39=0|40=2|44=109.479999999981|48=219696|54=1|55=IPE e-Brent|60=20140225-20:48:28|107=BRN FMJ0014!|150=0|151=2|10=182|8=FIX.4.2|9=280|35=8|34=268|49=ICE|50=G|52=20140225-20:48:28.810|56=12000|57=1|143=0|369=196|1=0|6=0|11=120001000157|14=0|17=0000000000000000000000000000000000000057|20=0|37=00000000000000097|38=2|39=0|40=2|44=109.5|48=219696|54=2|55=IPE e-Brent|60=20140225-20:48:28|107=BRN FMJ0014!|150=0|151=2|10=082|8=FIX.4.2|9=291|35=8|34=269|49=ICE|50=G|52=20140225-20:48:28.810|56=12000|57=1|143=0|369=196|1=0|6=0|11=120001000158|14=0|17=0000000000000000000000000000000000000058|20=0|37=00000000000000098|38=2|39=0|40=2|44=109.479999999981|48=219696|54=1|55=IPE e-Brent|60=20140225-20:48:28|107=BRN FMJ0014!|150=0|151=2|10=190|8=FIX.4.2|9=296|35=8|34=270|49=ICE|50=G|52=20140225-20:48:29.062|56=12000|57=1|143=0|369=197|1=0|6=0|11=120001000159|14=0|17=0000000000000000000000000000000000000059|20=0|37=00000000000000094|38=2|39=4|40=2|41=120001000154|44=109.5|48=219696|54=2|55=IPE e-Brent|60=20140225-20:48:29|107=BRN FMJ0014!|150=4|151=2|10=078|8=FIX.4.2|9=291|35=8|34=271|49=ICE|50=G|52=20140225-20:48:29.317|56=12000|57=1|143=0|369=198|1=0|6=0|11=120001000160|14=0|17=000000000000000000000000000000000000005A|20=0|37=00000000000000099|38=1|39=0|40=2|44=109.479999999981|48=219696|54=1|55=IPE e-Brent|60=20140225-20:48:29|107=BRN FMJ0014!|150=0|151=1|10=190|8=FIX.4.2|9=294|35=8|34=272|49=ICE|50=G|52=20140225-20:48:31.553|56=12000|57=1|143=0|369=198|1=0|6=0|11=120001000157|14=2|17=000000000000000000000000000000000000005B|20=0|31=109.5|32=2|37=00000000000000097|38=2|39=2|40=2|44=109.5|48=219696|54=2|55=IPE e-Brent|60=20140225-20:48:31|107=BRN FMJ0014!|150=2|151=0|10=207|8=FIX.4.2|9=291|35=8|34=273|49=ICE|50=G|52=20140225-20:48:31.577|56=12000|57=1|143=0|369=199|1=0|6=0|11=120001000161|14=0|17=000000000000000000000000000000000000005C|20=0|37=00000000000000100|38=1|39=0|40=2|44=109.479999999981|48=219696|54=1|55=IPE e-Brent|60=20140225-20:48:31|107=BRN FMJ0014!|150=0|151=1|10=173|8=FIX.4.2|9=307|35=8|34=274|49=ICE|50=G|52=20140225-20:48:31.828|56=12000|57=1|143=0|369=200|1=0|6=0|11=120001000162|14=0|17=000000000000000000000000000000000000005D|20=0|37=00000000000000100|38=1|39=4|40=2|41=120001000161|44=109.479999999981|48=219696|54=1|55=IPE e-Brent|60=20140225-20:48:31|107=BRN FMJ0014!|150=4|151=1|10=147|8=FIX.4.2|9=291|35=8|34=275|49=ICE|50=G|52=20140225-20:48:32.081|56=12000|57=1|143=0|369=201|1=0|6=0|11=120001000163|14=0|17=000000000000000000000000000000000000005E|20=0|37=00000000000000101|38=2|39=0|40=2|44=109.479999999981|48=219696|54=1|55=IPE e-Brent|60=20140225-20:48:32|107=BRN FMJ0014!|150=0|151=2|10=158|8=FIX.4.2|9=307|35=8|34=276|49=ICE|50=G|52=20140225-20:48:42.347|56=12000|57=1|143=0|369=202|1=0|6=0|11=120001000164|14=0|17=000000000000000000000000000000000000005F|20=0|37=00000000000000086|38=2|39=4|40=2|41=120001000144|44=109.479999999981|48=219696|54=1|55=IPE e-Brent|60=20140225-20:48:42|107=BRN FMJ0014!|150=4|151=2|10=171|8=FIX.4.2|9=307|35=8|34=277|49=ICE|50=G|52=20140225-20:48:42.351|56=12000|57=1|143=0|369=209|1=0|6=0|11=120001000165|14=0|17=000000000000000000000000000000000000005G|20=0|37=00000000000000089|38=1|39=4|40=2|41=120001000147|44=109.479999999981|48=219696|54=1|55=IPE e-Brent|60=20140225-20:48:42|107=BRN FMJ0014!|150=4|151=1|10=180|8=FIX.4.2|9=307|35=8|34=278|49=ICE|50=G|52=20140225-20:48:42.351|56=12000|57=1|143=0|369=209|1=0|6=0|11=120001000166|14=0|17=000000000000000000000000000000000000005H|20=0|37=00000000000000093|38=1|39=4|40=2|41=120001000153|44=109.479999999981|48=219696|54=1|55=IPE e-Brent|60=20140225-20:48:42|107=BRN FMJ0014!|150=4|151=1|10=175|8=FIX.4.2|9=307|35=8|34=279|49=ICE|50=G|52=20140225-20:48:42.352|56=12000|57=1|143=0|369=209|1=0|6=0|11=120001000167|14=0|17=000000000000000000000000000000000000005I|20=0|37=00000000000000095|38=2|39=4|40=2|41=120001000155|44=109.479999999981|48=219696|54=1|55=IPE e-Brent|60=20140225-20:48:42|107=BRN FMJ0014!|150=4|151=2|10=185|8=FIX.4.2|9=307|35=8|34=280|49=ICE|50=G|52=20140225-20:48:42.352|56=12000|57=1|143=0|369=209|1=0|6=0|11=120001000168|14=0|17=000000000000000000000000000000000000005J|20=0|37=00000000000000096|38=2|39=4|40=2|41=120001000156|44=109.479999999981|48=219696|54=1|55=IPE e-Brent|60=20140225-20:48:42|107=BRN FMJ0014!|150=4|151=2|10=181|8=FIX.4.2|9=307|35=8|34=281|49=ICE|50=G|52=20140225-20:48:42.352|56=12000|57=1|143=0|369=209|1=0|6=0|11=120001000169|14=0|17=000000000000000000000000000000000000005K|20=0|37=00000000000000098|38=2|39=4|40=2|41=120001000158|44=109.479999999981|48=219696|54=1|55=IPE e-Brent|60=20140225-20:48:42|107=BRN FMJ0014!|150=4|151=2|10=188|8=FIX.4.2|9=307|35=8|34=282|49=ICE|50=G|52=20140225-20:48:42.352|56=12000|57=1|143=0|369=209|1=0|6=0|11=120001000170|14=0|17=000000000000000000000000000000000000005L|20=0|37=00000000000000099|38=1|39=4|40=2|41=120001000160|44=109.479999999981|48=219696|54=1|55=IPE e-Brent|60=20140225-20:48:42|107=BRN FMJ0014!|150=4|151=1|10=174|8=FIX.4.2|9=307|35=8|34=283|49=ICE|50=G|52=20140225-20:48:42.352|56=12000|57=1|143=0|369=209|1=0|6=0|11=120001000171|14=0|17=000000000000000000000000000000000000005M|20=0|37=00000000000000101|38=2|39=4|40=2|41=120001000163|44=109.479999999981|48=219696|54=1|55=IPE e-Brent|60=20140225-20:48:42|107=BRN FMJ0014!|150=4|151=2|10=166|8=FIX.4.2|9=291|35=8|34=284|49=ICE|50=G|52=20140225-20:48:42.603|56=12000|57=1|143=0|369=210|1=0|6=0|11=120001000172|14=0|17=000000000000000000000000000000000000005N|20=0|37=00000000000000102|38=2|39=0|40=2|44=109.479999999981|48=219696|54=1|55=IPE e-Brent|60=20140225-20:48:42|107=BRN FMJ0014!|150=0|151=2|10=170|8=FIX.4.2|9=291|35=8|34=285|49=ICE|50=G|52=20140225-20:48:42.608|56=12000|57=1|143=0|369=216|1=0|6=0|11=120001000173|14=0|17=000000000000000000000000000000000000005O|20=0|37=00000000000000103|38=1|39=0|40=2|44=109.479999999981|48=219696|54=1|55=IPE e-Brent|60=20140225-20:48:42|107=BRN FMJ0014!|150=0|151=1|10=183|8=FIX.4.2|9=291|35=8|34=286|49=ICE|50=G|52=20140225-20:48:42.609|56=12000|57=1|143=0|369=217|1=0|6=0|11=120001000174|14=0|17=000000000000000000000000000000000000005P|20=0|37=00000000000000104|38=1|39=0|40=2|44=109.479999999981|48=219696|54=1|55=IPE e-Brent|60=20140225-20:48:42|107=BRN FMJ0014!|150=0|151=1|10=189|8=FIX.4.2|9=291|35=8|34=287|49=ICE|50=G|52=20140225-20:48:42.609|56=12000|57=1|143=0|369=217|1=0|6=0|11=120001000175|14=0|17=000000000000000000000000000000000000005Q|20=0|37=00000000000000105|38=2|39=0|40=2|44=109.479999999981|48=219696|54=1|55=IPE e-Brent|60=20140225-20:48:42|107=BRN FMJ0014!|150=0|151=2|10=195|8=FIX.4.2|9=291|35=8|34=288|49=ICE|50=G|52=20140225-20:48:42.609|56=12000|57=1|143=0|369=217|1=0|6=0|11=120001000176|14=0|17=000000000000000000000000000000000000005R|20=0|37=00000000000000106|38=1|39=0|40=2|44=109.479999999981|48=219696|54=1|55=IPE e-Brent|60=20140225-20:48:42|107=BRN FMJ0014!|150=0|151=1|10=197|8=FIX.4.2|9=291|35=8|34=289|49=ICE|50=G|52=20140225-20:48:42.610|56=12000|57=1|143=0|369=217|1=0|6=0|11=120001000177|14=0|17=000000000000000000000000000000000000005S|20=0|37=00000000000000107|38=2|39=0|40=2|44=109.479999999981|48=219696|54=1|55=IPE e-Brent|60=20140225-20:48:42|107=BRN FMJ0014!|150=0|151=2|10=195|8=FIX.4.2|9=291|35=8|34=290|49=ICE|50=G|52=20140225-20:48:42.610|56=12000|57=1|143=0|369=217|1=0|6=0|11=120001000178|14=0|17=000000000000000000000000000000000000005T|20=0|37=00000000000000108|38=1|39=0|40=2|44=109.479999999981|48=219696|54=1|55=IPE e-Brent|60=20140225-20:48:42|107=BRN FMJ0014!|150=0|151=1|10=188|8=FIX.4.2|9=291|35=8|34=291|49=ICE|50=G|52=20140225-20:48:42.613|56=12000|57=1|143=0|369=217|1=0|6=0|11=120001000179|14=0|17=000000000000000000000000000000000000005U|20=0|37=00000000000000109|38=1|39=0|40=2|44=109.479999999981|48=219696|54=1|55=IPE e-Brent|60=20140225-20:48:42|107=BRN FMJ0014!|150=0|151=1|10=195|8=FIX.4.2|9=307|35=8|34=292|49=ICE|50=G|52=20140225-20:48:42.863|56=12000|57=1|143=0|369=218|1=0|6=0|11=120001000180|14=0|17=000000000000000000000000000000000000005V|20=0|37=00000000000000105|38=2|39=4|40=2|41=120001000175|44=109.479999999981|48=219696|54=1|55=IPE e-Brent|60=20140225-20:48:42|107=BRN FMJ0014!|150=4|151=2|10=189|8=FIX.4.2|9=307|35=8|34=293|49=ICE|50=G|52=20140225-20:48:42.867|56=12000|57=1|143=0|369=219|1=0|6=0|11=120001000181|14=0|17=000000000000000000000000000000000000005W|20=0|37=00000000000000107|38=2|39=4|40=2|41=120001000177|44=109.479999999981|48=219696|54=1|55=IPE e-Brent|60=20140225-20:48:42|107=BRN FMJ0014!|150=4|151=2|10=201|8=FIX.4.2|9=291|35=8|34=294|49=ICE|50=G|52=20140225-20:48:43.116|56=12000|57=1|143=0|369=220|1=0|6=0|11=120001000182|14=0|17=000000000000000000000000000000000000005X|20=0|37=00000000000000110|38=2|39=0|40=2|44=109.479999999981|48=219696|54=1|55=IPE e-Brent|60=20140225-20:48:43|107=BRN FMJ0014!|150=0|151=2|10=183|8=FIX.4.2|9=291|35=8|34=295|49=ICE|50=G|52=20140225-20:48:43.121|56=12000|57=1|143=0|369=221|1=0|6=0|11=120001000183|14=0|17=000000000000000000000000000000000000005Y|20=0|37=00000000000000111|38=1|39=0|40=2|44=109.479999999981|48=219696|54=1|55=IPE e-Brent|60=20140225-20:48:43|107=BRN FMJ0014!|150=0|151=1|10=182|8=FIX.4.2|9=307|35=8|34=296|49=ICE|50=G|52=20140225-20:48:43.368|56=12000|57=1|143=0|369=222|1=0|6=0|11=120001000184|14=0|17=000000000000000000000000000000000000005Z|20=0|37=00000000000000110|38=2|39=4|40=2|41=120001000182|44=109.479999999981|48=219696|54=1|55=IPE e-Brent|60=20140225-20:48:43|107=BRN FMJ0014!|150=4|151=2|10=192|8=FIX.4.2|9=291|35=8|34=297|49=ICE|50=G|52=20140225-20:48:43.621|56=12000|57=1|143=0|369=223|1=0|6=0|11=120001000185|14=0|17=0000000000000000000000000000000000000060|20=0|37=00000000000000112|38=2|39=0|40=2|44=109.479999999981|48=219696|54=1|55=IPE e-Brent|60=20140225-20:48:43|107=BRN FMJ0014!|150=0|151=2|10=156|8=FIX.4.2|9=307|35=8|34=298|49=ICE|50=G|52=20140225-20:48:53.897|56=12000|57=1|143=0|369=224|1=0|6=0|11=120001000186|14=0|17=0000000000000000000000000000000000000061|20=0|37=00000000000000102|38=2|39=4|40=2|41=120001000172|44=109.479999999981|48=219696|54=1|55=IPE e-Brent|60=20140225-20:48:53|107=BRN FMJ0014!|150=4|151=2|10=167|8=FIX.4.2|9=307|35=8|34=299|49=ICE|50=G|52=20140225-20:48:53.901|56=12000|57=1|143=0|369=231|1=0|6=0|11=120001000187|14=0|17=0000000000000000000000000000000000000062|20=0|37=00000000000000103|38=1|39=4|40=2|41=120001000173|44=109.479999999981|48=219696|54=1|55=IPE e-Brent|60=20140225-20:48:53|107=BRN FMJ0014!|150=4|151=1|10=154|8=FIX.4.2|9=307|35=8|34=300|49=ICE|50=G|52=20140225-20:48:53.901|56=12000|57=1|143=0|369=231|1=0|6=0|11=120001000188|14=0|17=0000000000000000000000000000000000000063|20=0|37=00000000000000104|38=1|39=4|40=2|41=120001000174|44=109.479999999981|48=219696|54=1|55=IPE e-Brent|60=20140225-20:48:53|107=BRN FMJ0014!|150=4|151=1|10=141|8=FIX.4.2|9=307|35=8|34=301|49=ICE|50=G|52=20140225-20:48:53.902|56=12000|57=1|143=0|369=231|1=0|6=0|11=120001000189|14=0|17=0000000000000000000000000000000000000064|20=0|37=00000000000000106|38=1|39=4|40=2|41=120001000176|44=109.479999999981|48=219696|54=1|55=IPE e-Brent|60=20140225-20:48:53|107=BRN FMJ0014!|150=4|151=1|10=149|8=FIX.4.2|9=307|35=8|34=302|49=ICE|50=G|52=20140225-20:48:53.902|56=12000|57=1|143=0|369=231|1=0|6=0|11=120001000190|14=0|17=0000000000000000000000000000000000000065|20=0|37=00000000000000108|38=1|39=4|40=2|41=120001000178|44=109.479999999981|48=219696|54=1|55=IPE e-Brent|60=20140225-20:48:53|107=BRN FMJ0014!|150=4|151=1|10=147|8=FIX.4.2|9=307|35=8|34=303|49=ICE|50=G|52=20140225-20:48:53.902|56=12000|57=1|143=0|369=231|1=0|6=0|11=120001000191|14=0|17=0000000000000000000000000000000000000066|20=0|37=00000000000000109|38=1|39=4|40=2|41=120001000179|44=109.479999999981|48=219696|54=1|55=IPE e-Brent|60=20140225-20:48:53|107=BRN FMJ0014!|150=4|151=1|10=152|8=FIX.4.2|9=307|35=8|34=304|49=ICE|50=G|52=20140225-20:48:53.902|56=12000|57=1|143=0|369=231|1=0|6=0|11=120001000192|14=0|17=0000000000000000000000000000000000000067|20=0|37=00000000000000111|38=1|39=4|40=2|41=120001000183|44=109.479999999981|48=219696|54=1|55=IPE e-Brent|60=20140225-20:48:53|107=BRN FMJ0014!|150=4|151=1|10=143|8=FIX.4.2|9=307|35=8|34=305|49=ICE|50=G|52=20140225-20:48:53.903|56=12000|57=1|143=0|369=231|1=0|6=0|11=120001000193|14=0|17=0000000000000000000000000000000000000068|20=0|37=00000000000000112|38=2|39=4|40=2|41=120001000185|44=109.479999999981|48=219696|54=1|55=IPE e-Brent|60=20140225-20:48:53|107=BRN FMJ0014!|150=4|151=2|10=152|8=FIX.4.2|9=291|35=8|34=306|49=ICE|50=G|52=20140225-20:48:54.153|56=12000|57=1|143=0|369=232|1=0|6=0|11=120001000194|14=0|17=0000000000000000000000000000000000000069|20=0|37=00000000000000113|38=2|39=0|40=2|44=109.479999999981|48=219696|54=1|55=IPE e-Brent|60=20140225-20:48:54|107=BRN FMJ0014!|150=0|151=2|10=161|8=FIX.4.2|9=291|35=8|34=307|49=ICE|50=G|52=20140225-20:48:54.158|56=12000|57=1|143=0|369=238|1=0|6=0|11=120001000195|14=0|17=000000000000000000000000000000000000006A|20=0|37=00000000000000114|38=2|39=0|40=2|44=109.479999999981|48=219696|54=1|55=IPE e-Brent|60=20140225-20:48:54|107=BRN FMJ0014!|150=0|151=2|10=183|8=FIX.4.2|9=291|35=8|34=308|49=ICE|50=G|52=20140225-20:48:54.159|56=12000|57=1|143=0|369=238|1=0|6=0|11=120001000196|14=0|17=000000000000000000000000000000000000006B|20=0|37=00000000000000115|38=2|39=0|40=2|44=109.479999999981|48=219696|54=1|55=IPE e-Brent|60=20140225-20:48:54|107=BRN FMJ0014!|150=0|151=2|10=188|8=FIX.4.2|9=291|35=8|34=309|49=ICE|50=G|52=20140225-20:48:54.159|56=12000|57=1|143=0|369=238|1=0|6=0|11=120001000197|14=0|17=000000000000000000000000000000000000006C|20=0|37=00000000000000116|38=1|39=0|40=2|44=109.479999999981|48=219696|54=1|55=IPE e-Brent|60=20140225-20:48:54|107=BRN FMJ0014!|150=0|151=1|10=190|8=FIX.4.2|9=291|35=8|34=310|49=ICE|50=G|52=20140225-20:48:54.159|56=12000|57=1|143=0|369=238|1=0|6=0|11=120001000198|14=0|17=000000000000000000000000000000000000006D|20=0|37=00000000000000117|38=1|39=0|40=2|44=109.479999999981|48=219696|54=1|55=IPE e-Brent|60=20140225-20:48:54|107=BRN FMJ0014!|150=0|151=1|10=185|8=FIX.4.2|9=291|35=8|34=311|49=ICE|50=G|52=20140225-20:48:54.160|56=12000|57=1|143=0|369=239|1=0|6=0|11=120001000199|14=0|17=000000000000000000000000000000000000006E|20=0|37=00000000000000118|38=1|39=0|40=2|44=109.479999999981|48=219696|54=1|55=IPE e-Brent|60=20140225-20:48:54|107=BRN FMJ0014!|150=0|151=1|10=182|8=FIX.4.2|9=291|35=8|34=312|49=ICE|50=G|52=20140225-20:48:54.160|56=12000|57=1|143=0|369=239|1=0|6=0|11=120001000200|14=0|17=000000000000000000000000000000000000006F|20=0|37=00000000000000119|38=1|39=0|40=2|44=109.479999999981|48=219696|54=1|55=IPE e-Brent|60=20140225-20:48:54|107=BRN FMJ0014!|150=0|151=1|10=168|8=FIX.4.2|9=291|35=8|34=313|49=ICE|50=G|52=20140225-20:48:54.164|56=12000|57=1|143=0|369=239|1=0|6=0|11=120001000201|14=0|17=000000000000000000000000000000000000006G|20=0|37=00000000000000120|38=1|39=0|40=2|44=109.479999999981|48=219696|54=1|55=IPE e-Brent|60=20140225-20:48:54|107=BRN FMJ0014!|150=0|151=1|10=167|8=FIX.4.2|9=307|35=8|34=314|49=ICE|50=G|52=20140225-20:48:54.412|56=12000|57=1|143=0|369=240|1=0|6=0|11=120001000202|14=0|17=000000000000000000000000000000000000006H|20=0|37=00000000000000115|38=2|39=4|40=2|41=120001000196|44=109.479999999981|48=219696|54=1|55=IPE e-Brent|60=20140225-20:48:54|107=BRN FMJ0014!|150=4|151=2|10=161|8=FIX.4.2|9=307|35=8|34=315|49=ICE|50=G|52=20140225-20:48:54.417|56=12000|57=1|143=0|369=241|1=0|6=0|11=120001000203|14=0|17=000000000000000000000000000000000000006I|20=0|37=00000000000000117|38=1|39=4|40=2|41=120001000198|44=109.479999999981|48=219696|54=1|55=IPE e-Brent|60=20140225-20:48:54|107=BRN FMJ0014!|150=4|151=1|10=172|8=FIX.4.2|9=291|35=8|34=316|49=ICE|50=G|52=20140225-20:48:54.666|56=12000|57=1|143=0|369=242|1=0|6=0|11=120001000204|14=0|17=000000000000000000000000000000000000006J|20=0|37=00000000000000121|38=1|39=0|40=2|44=109.479999999981|48=219696|54=1|55=IPE e-Brent|60=20140225-20:48:54|107=BRN FMJ0014!|150=0|151=1|10=178|8=FIX.4.2|9=291|35=8|34=317|49=ICE|50=G|52=20140225-20:48:54.671|56=12000|57=1|143=0|369=243|1=0|6=0|11=120001000205|14=0|17=000000000000000000000000000000000000006K|20=0|37=00000000000000122|38=2|39=0|40=2|44=109.479999999981|48=219696|54=1|55=IPE e-Brent|60=20140225-20:48:54|107=BRN FMJ0014!|150=0|151=2|10=181|8=FIX.4.2|9=307|35=8|34=318|49=ICE|50=G|52=20140225-20:49:04.932|56=12000|57=1|143=0|369=244|1=0|6=0|11=120001000206|14=0|17=000000000000000000000000000000000000006L|20=0|37=00000000000000118|38=1|39=4|40=2|41=120001000199|44=109.479999999981|48=219696|54=1|55=IPE e-Brent|60=20140225-20:49:04|107=BRN FMJ0014!|150=4|151=1|10=180|8=FIX.4.2|9=307|35=8|34=319|49=ICE|50=G|52=20140225-20:49:04.937|56=12000|57=1|143=0|369=251|1=0|6=0|11=120001000207|14=0|17=000000000000000000000000000000000000006M|20=0|37=00000000000000119|38=1|39=4|40=2|41=120001000200|44=109.479999999981|48=219696|54=1|55=IPE e-Brent|60=20140225-20:49:04|107=BRN FMJ0014!|150=4|151=1|10=170|8=FIX.4.2|9=307|35=8|34=320|49=ICE|50=G|52=20140225-20:49:04.937|56=12000|57=1|143=0|369=251|1=0|6=0|11=120001000208|14=0|17=000000000000000000000000000000000000006N|20=0|37=00000000000000120|38=1|39=4|40=2|41=120001000201|44=109.479999999981|48=219696|54=1|55=IPE e-Brent|60=20140225-20:49:04|107=BRN FMJ0014!|150=4|151=1|10=157|8=FIX.4.2|9=307|35=8|34=321|49=ICE|50=G|52=20140225-20:49:04.937|56=12000|57=1|143=0|369=251|1=0|6=0|11=120001000209|14=0|17=000000000000000000000000000000000000006O|20=0|37=00000000000000121|38=1|39=4|40=2|41=120001000204|44=109.479999999981|48=219696|54=1|55=IPE e-Brent|60=20140225-20:49:04|107=BRN FMJ0014!|150=4|151=1|10=164|8=FIX.4.2|9=307|35=8|34=322|49=ICE|50=G|52=20140225-20:49:04.937|56=12000|57=1|143=0|369=251|1=0|6=0|11=120001000210|14=0|17=000000000000000000000000000000000000006P|20=0|37=00000000000000122|38=2|39=4|40=2|41=120001000205|44=109.479999999981|48=219696|54=1|55=IPE e-Brent|60=20140225-20:49:04|107=BRN FMJ0014!|150=4|151=2|10=162|8=FIX.4.2|9=307|35=8|34=323|49=ICE|50=G|52=20140225-20:49:04.937|56=12000|57=1|143=0|369=251|1=0|6=0|11=120001000211|14=0|17=000000000000000000000000000000000000006Q|20=0|37=00000000000000113|38=2|39=4|40=2|41=120001000194|44=109.479999999981|48=219696|54=1|55=IPE e-Brent|60=20140225-20:49:04|107=BRN FMJ0014!|150=4|151=2|10=172|8=FIX.4.2|9=307|35=8|34=324|49=ICE|50=G|52=20140225-20:49:04.937|56=12000|57=1|143=0|369=251|1=0|6=0|11=120001000212|14=0|17=000000000000000000000000000000000000006R|20=0|37=00000000000000114|38=2|39=4|40=2|41=120001000195|44=109.479999999981|48=219696|54=1|55=IPE e-Brent|60=20140225-20:49:04|107=BRN FMJ0014!|150=4|151=2|10=177|8=FIX.4.2|9=307|35=8|34=325|49=ICE|50=G|52=20140225-20:49:04.938|56=12000|57=1|143=0|369=251|1=0|6=0|11=120001000213|14=0|17=000000000000000000000000000000000000006S|20=0|37=00000000000000116|38=1|39=4|40=2|41=120001000197|44=109.479999999981|48=219696|54=1|55=IPE e-Brent|60=20140225-20:49:04|107=BRN FMJ0014!|150=4|151=1|10=183|8=FIX.4.2|9=291|35=8|34=326|49=ICE|50=G|52=20140225-20:49:05.189|56=12000|57=1|143=0|369=252|1=0|6=0|11=120001000214|14=0|17=000000000000000000000000000000000000006T|20=0|37=00000000000000123|38=2|39=0|40=2|44=109.479999999981|48=219696|54=1|55=IPE e-Brent|60=20140225-20:49:05|107=BRN FMJ0014!|150=0|151=2|10=189|8=FIX.4.2|9=291|35=8|34=327|49=ICE|50=G|52=20140225-20:49:05.194|56=12000|57=1|143=0|369=257|1=0|6=0|11=120001000215|14=0|17=000000000000000000000000000000000000006U|20=0|37=00000000000000124|38=2|39=0|40=2|44=109.479999999981|48=219696|54=1|55=IPE e-Brent|60=20140225-20:49:05|107=BRN FMJ0014!|150=0|151=2|10=194|8=FIX.4.2|9=291|35=8|34=328|49=ICE|50=G|52=20140225-20:49:05.194|56=12000|57=1|143=0|369=257|1=0|6=0|11=120001000216|14=0|17=000000000000000000000000000000000000006V|20=0|37=00000000000000125|38=2|39=0|40=2|44=109.479999999981|48=219696|54=1|55=IPE e-Brent|60=20140225-20:49:05|107=BRN FMJ0014!|150=0|151=2|10=198|8=FIX.4.2|9=291|35=8|34=329|49=ICE|50=G|52=20140225-20:49:05.195|56=12000|57=1|143=0|369=257|1=0|6=0|11=120001000217|14=0|17=000000000000000000000000000000000000006W|20=0|37=00000000000000126|38=2|39=0|40=2|44=109.479999999981|48=219696|54=1|55=IPE e-Brent|60=20140225-20:49:05|107=BRN FMJ0014!|150=0|151=2|10=203|8=FIX.4.2|9=291|35=8|34=330|49=ICE|50=G|52=20140225-20:49:05.195|56=12000|57=1|143=0|369=257|1=0|6=0|11=120001000218|14=0|17=000000000000000000000000000000000000006X|20=0|37=00000000000000127|38=2|39=0|40=2|44=109.479999999981|48=219696|54=1|55=IPE e-Brent|60=20140225-20:49:05|107=BRN FMJ0014!|150=0|151=2|10=198|8=FIX.4.2|9=291|35=8|34=331|49=ICE|50=G|52=20140225-20:49:05.195|56=12000|57=1|143=0|369=259|1=0|6=0|11=120001000219|14=0|17=000000000000000000000000000000000000006Y|20=0|37=00000000000000128|38=1|39=0|40=2|44=109.479999999981|48=219696|54=1|55=IPE e-Brent|60=20140225-20:49:05|107=BRN FMJ0014!|150=0|151=1|10=202|8=FIX.4.2|9=291|35=8|34=332|49=ICE|50=G|52=20140225-20:49:05.199|56=12000|57=1|143=0|369=259|1=0|6=0|11=120001000220|14=0|17=000000000000000000000000000000000000006Z|20=0|37=00000000000000129|38=1|39=0|40=2|44=109.479999999981|48=219696|54=1|55=IPE e-Brent|60=20140225-20:49:05|107=BRN FMJ0014!|150=0|151=1|10=201|8=FIX.4.2|9=291|35=8|34=333|49=ICE|50=G|52=20140225-20:49:05.200|56=12000|57=1|143=0|369=259|1=0|6=0|11=120001000221|14=0|17=0000000000000000000000000000000000000070|20=0|37=00000000000000130|38=2|39=0|40=2|44=109.479999999981|48=219696|54=1|55=IPE e-Brent|60=20140225-20:49:05|107=BRN FMJ0014!|150=0|151=2|10=139|8=FIX.4.2|9=307|35=8|34=334|49=ICE|50=G|52=20140225-20:49:05.451|56=12000|57=1|143=0|369=260|1=0|6=0|11=120001000222|14=0|17=0000000000000000000000000000000000000071|20=0|37=00000000000000130|38=2|39=4|40=2|41=120001000221|44=109.479999999981|48=219696|54=1|55=IPE e-Brent|60=20140225-20:49:05|107=BRN FMJ0014!|150=4|151=2|10=128|8=FIX.4.2|9=291|35=8|34=335|49=ICE|50=G|52=20140225-20:49:05.705|56=12000|57=1|143=0|369=261|1=0|6=0|11=120001000223|14=0|17=0000000000000000000000000000000000000072|20=0|37=00000000000000131|38=2|39=0|40=2|44=109.479999999981|48=219696|54=1|55=IPE e-Brent|60=20140225-20:49:05|107=BRN FMJ0014!|150=0|151=2|10=149|8=FIX.4.2|9=307|35=8|34=336|49=ICE|50=G|52=20140225-20:49:15.977|56=12000|57=1|143=0|369=262|1=0|6=0|11=120001000224|14=0|17=0000000000000000000000000000000000000073|20=0|37=00000000000000123|38=2|39=4|40=2|41=120001000214|44=109.479999999981|48=219696|54=1|55=IPE e-Brent|60=20140225-20:49:15|107=BRN FMJ0014!|150=4|151=2|10=155|8=FIX.4.2|9=307|35=8|34=337|49=ICE|50=G|52=20140225-20:49:15.982|56=12000|57=1|143=0|369=269|1=0|6=0|11=120001000225|14=0|17=0000000000000000000000000000000000000074|20=0|37=00000000000000124|38=2|39=4|40=2|41=120001000215|44=109.479999999981|48=219696|54=1|55=IPE e-Brent|60=20140225-20:49:15|107=BRN FMJ0014!|150=4|151=2|10=163|8=FIX.4.2|9=307|35=8|34=338|49=ICE|50=G|52=20140225-20:49:15.982|56=12000|57=1|143=0|369=269|1=0|6=0|11=120001000226|14=0|17=0000000000000000000000000000000000000075|20=0|37=00000000000000125|38=2|39=4|40=2|41=120001000216|44=109.479999999981|48=219696|54=1|55=IPE e-Brent|60=20140225-20:49:15|107=BRN FMJ0014!|150=4|151=2|10=168|8=FIX.4.2|9=307|35=8|34=339|49=ICE|50=G|52=20140225-20:49:15.982|56=12000|57=1|143=0|369=269|1=0|6=0|11=120001000227|14=0|17=0000000000000000000000000000000000000076|20=0|37=00000000000000126|38=2|39=4|40=2|41=120001000217|44=109.479999999981|48=219696|54=1|55=IPE e-Brent|60=20140225-20:49:15|107=BRN FMJ0014!|150=4|151=2|10=173|8=FIX.4.2|9=307|35=8|34=340|49=ICE|50=G|52=20140225-20:49:15.982|56=12000|57=1|143=0|369=269|1=0|6=0|11=120001000228|14=0|17=0000000000000000000000000000000000000077|20=0|37=00000000000000127|38=2|39=4|40=2|41=120001000218|44=109.479999999981|48=219696|54=1|55=IPE e-Brent|60=20140225-20:49:15|107=BRN FMJ0014!|150=4|151=2|10=169|8=FIX.4.2|9=307|35=8|34=341|49=ICE|50=G|52=20140225-20:49:15.982|56=12000|57=1|143=0|369=269|1=0|6=0|11=120001000229|14=0|17=0000000000000000000000000000000000000078|20=0|37=00000000000000128|38=1|39=4|40=2|41=120001000219|44=109.479999999981|48=219696|54=1|55=IPE e-Brent|60=20140225-20:49:15|107=BRN FMJ0014!|150=4|151=1|10=172|8=FIX.4.2|9=307|35=8|34=342|49=ICE|50=G|52=20140225-20:49:15.982|56=12000|57=1|143=0|369=269|1=0|6=0|11=120001000230|14=0|17=0000000000000000000000000000000000000079|20=0|37=00000000000000129|38=1|39=4|40=2|41=120001000220|44=109.479999999981|48=219696|54=1|55=IPE e-Brent|60=20140225-20:49:15|107=BRN FMJ0014!|150=4|151=1|10=159|8=FIX.4.2|9=307|35=8|34=343|49=ICE|50=G|52=20140225-20:49:15.983|56=12000|57=1|143=0|369=269|1=0|6=0|11=120001000231|14=0|17=000000000000000000000000000000000000007A|20=0|37=00000000000000131|38=2|39=4|40=2|41=120001000223|44=109.479999999981|48=219696|54=1|55=IPE e-Brent|60=20140225-20:49:15|107=BRN FMJ0014!|150=4|151=2|10=168|8=FIX.4.2|9=291|35=8|34=344|49=ICE|50=G|52=20140225-20:49:16.233|56=12000|57=1|143=0|369=270|1=0|6=0|11=120001000232|14=0|17=000000000000000000000000000000000000007B|20=0|37=00000000000000132|38=2|39=0|40=2|44=109.479999999981|48=219696|54=1|55=IPE e-Brent|60=20140225-20:49:16|107=BRN FMJ0014!|150=0|151=2|10=166|8=FIX.4.2|9=291|35=8|34=345|49=ICE|50=G|52=20140225-20:49:16.238|56=12000|57=1|143=0|369=275|1=0|6=0|11=120001000233|14=0|17=000000000000000000000000000000000000007C|20=0|37=00000000000000133|38=1|39=0|40=2|44=109.479999999981|48=219696|54=1|55=IPE e-Brent|60=20140225-20:49:16|107=BRN FMJ0014!|150=0|151=1|10=178|8=FIX.4.2|9=291|35=8|34=346|49=ICE|50=G|52=20140225-20:49:16.238|56=12000|57=1|143=0|369=277|1=0|6=0|11=120001000234|14=0|17=000000000000000000000000000000000000007D|20=0|37=00000000000000134|38=2|39=0|40=2|44=109.479999999981|48=219696|54=1|55=IPE e-Brent|60=20140225-20:49:16|107=BRN FMJ0014!|150=0|151=2|10=186|8=FIX.4.2|9=291|35=8|34=347|49=ICE|50=G|52=20140225-20:49:16.239|56=12000|57=1|143=0|369=277|1=0|6=0|11=120001000235|14=0|17=000000000000000000000000000000000000007E|20=0|37=00000000000000135|38=2|39=0|40=2|44=109.479999999981|48=219696|54=1|55=IPE e-Brent|60=20140225-20:49:16|107=BRN FMJ0014!|150=0|151=2|10=191|8=FIX.4.2|9=291|35=8|34=348|49=ICE|50=G|52=20140225-20:49:16.239|56=12000|57=1|143=0|369=277|1=0|6=0|11=120001000236|14=0|17=000000000000000000000000000000000000007F|20=0|37=00000000000000136|38=1|39=0|40=2|44=109.479999999981|48=219696|54=1|55=IPE e-Brent|60=20140225-20:49:16|107=BRN FMJ0014!|150=0|151=1|10=193|8=FIX.4.2|9=291|35=8|34=349|49=ICE|50=G|52=20140225-20:49:16.239|56=12000|57=1|143=0|369=277|1=0|6=0|11=120001000237|14=0|17=000000000000000000000000000000000000007G|20=0|37=00000000000000137|38=1|39=0|40=2|44=109.479999999981|48=219696|54=1|55=IPE e-Brent|60=20140225-20:49:16|107=BRN FMJ0014!|150=0|151=1|10=197|8=FIX.4.2|9=291|35=8|34=350|49=ICE|50=G|52=20140225-20:49:16.242|56=12000|57=1|143=0|369=277|1=0|6=0|11=120001000238|14=0|17=000000000000000000000000000000000000007H|20=0|37=00000000000000138|38=2|39=0|40=2|44=109.479999999981|48=219696|54=1|55=IPE e-Brent|60=20140225-20:49:16|107=BRN FMJ0014!|150=0|151=2|10=188|8=FIX.4.2|9=291|35=8|34=351|49=ICE|50=G|52=20140225-20:49:16.243|56=12000|57=1|143=0|369=277|1=0|6=0|11=120001000239|14=0|17=000000000000000000000000000000000000007I|20=0|37=00000000000000139|38=1|39=0|40=2|44=109.479999999981|48=219696|54=1|55=IPE e-Brent|60=20140225-20:49:16|107=BRN FMJ0014!|150=0|151=1|10=191|8=FIX.4.2|9=307|35=8|34=352|49=ICE|50=G|52=20140225-20:49:16.493|56=12000|57=1|143=0|369=278|1=0|6=0|11=120001000240|14=0|17=000000000000000000000000000000000000007J|20=0|37=00000000000000133|38=1|39=4|40=2|41=120001000233|44=109.479999999981|48=219696|54=1|55=IPE e-Brent|60=20140225-20:49:16|107=BRN FMJ0014!|150=4|151=1|10=176|8=FIX.4.2|9=307|35=8|34=353|49=ICE|50=G|52=20140225-20:49:16.497|56=12000|57=1|143=0|369=279|1=0|6=0|11=120001000241|14=0|17=000000000000000000000000000000000000007K|20=0|37=00000000000000135|38=2|39=4|40=2|41=120001000235|44=109.479999999981|48=219696|54=1|55=IPE e-Brent|60=20140225-20:49:16|107=BRN FMJ0014!|150=4|151=2|10=190|8=FIX.4.2|9=291|35=8|34=354|49=ICE|50=G|52=20140225-20:49:16.748|56=12000|57=1|143=0|369=280|1=0|6=0|11=120001000242|14=0|17=000000000000000000000000000000000000007L|20=0|37=00000000000000140|38=1|39=0|40=2|44=109.479999999981|48=219696|54=1|55=IPE e-Brent|60=20140225-20:49:16|107=BRN FMJ0014!|150=0|151=1|10=187|8=FIX.4.2|9=291|35=8|34=355|49=ICE|50=G|52=20140225-20:49:16.752|56=12000|57=1|143=0|369=281|1=0|6=0|11=120001000243|14=0|17=000000000000000000000000000000000000007M|20=0|37=00000000000000141|38=2|39=0|40=2|44=109.479999999981|48=219696|54=1|55=IPE e-Brent|60=20140225-20:49:16|107=BRN FMJ0014!|150=0|151=2|10=189|8=FIX.4.2|9=307|35=8|34=356|49=ICE|50=G|52=20140225-20:49:27.031|56=12000|57=1|143=0|369=282|1=0|6=0|11=120001000244|14=0|17=000000000000000000000000000000000000007N|20=0|37=00000000000000132|38=2|39=4|40=2|41=120001000232|44=109.479999999981|48=219696|54=1|55=IPE e-Brent|60=20140225-20:49:27|107=BRN FMJ0014!|150=4|151=2|10=175|8=FIX.4.2|9=307|35=8|34=357|49=ICE|50=G|52=20140225-20:49:27.035|56=12000|57=1|143=0|369=289|1=0|6=0|11=120001000245|14=0|17=000000000000000000000000000000000000007O|20=0|37=00000000000000134|38=2|39=4|40=2|41=120001000234|44=109.479999999981|48=219696|54=1|55=IPE e-Brent|60=20140225-20:49:27|107=BRN FMJ0014!|150=4|151=2|10=193|8=FIX.4.2|9=307|35=8|34=358|49=ICE|50=G|52=20140225-20:49:27.035|56=12000|57=1|143=0|369=289|1=0|6=0|11=120001000246|14=0|17=000000000000000000000000000000000000007P|20=0|37=00000000000000136|38=1|39=4|40=2|41=120001000236|44=109.479999999981|48=219696|54=1|55=IPE e-Brent|60=20140225-20:49:27|107=BRN FMJ0014!|150=4|151=1|10=198|8=FIX.4.2|9=307|35=8|34=359|49=ICE|50=G|52=20140225-20:49:27.035|56=12000|57=1|143=0|369=289|1=0|6=0|11=120001000247|14=0|17=000000000000000000000000000000000000007Q|20=0|37=00000000000000137|38=1|39=4|40=2|41=120001000237|44=109.479999999981|48=219696|54=1|55=IPE e-Brent|60=20140225-20:49:27|107=BRN FMJ0014!|150=4|151=1|10=203|8=FIX.4.2|9=307|35=8|34=360|49=ICE|50=G|52=20140225-20:49:27.035|56=12000|57=1|143=0|369=289|1=0|6=0|11=120001000248|14=0|17=000000000000000000000000000000000000007R|20=0|37=00000000000000138|38=2|39=4|40=2|41=120001000238|44=109.479999999981|48=219696|54=1|55=IPE e-Brent|60=20140225-20:49:27|107=BRN FMJ0014!|150=4|151=2|10=201|8=FIX.4.2|9=307|35=8|34=361|49=ICE|50=G|52=20140225-20:49:27.036|56=12000|57=1|143=0|369=289|1=0|6=0|11=120001000249|14=0|17=000000000000000000000000000000000000007S|20=0|37=00000000000000139|38=1|39=4|40=2|41=120001000239|44=109.479999999981|48=219696|54=1|55=IPE e-Brent|60=20140225-20:49:27|107=BRN FMJ0014!|150=4|151=1|10=205|8=FIX.4.2|9=307|35=8|34=362|49=ICE|50=G|52=20140225-20:49:27.036|56=12000|57=1|143=0|369=289|1=0|6=0|11=120001000250|14=0|17=000000000000000000000000000000000000007T|20=0|37=00000000000000140|38=1|39=4|40=2|41=120001000242|44=109.479999999981|48=219696|54=1|55=IPE e-Brent|60=20140225-20:49:27|107=BRN FMJ0014!|150=4|151=1|10=185|8=FIX.4.2|9=307|35=8|34=363|49=ICE|50=G|52=20140225-20:49:27.036|56=12000|57=1|143=0|369=289|1=0|6=0|11=120001000251|14=0|17=000000000000000000000000000000000000007U|20=0|37=00000000000000141|38=2|39=4|40=2|41=120001000243|44=109.479999999981|48=219696|54=1|55=IPE e-Brent|60=20140225-20:49:27|107=BRN FMJ0014!|150=4|151=2|10=192|8=FIX.4.2|9=291|35=8|34=364|49=ICE|50=G|52=20140225-20:49:27.286|56=12000|57=1|143=0|369=290|1=0|6=0|11=120001000252|14=0|17=000000000000000000000000000000000000007V|20=0|37=00000000000000142|38=1|39=0|40=2|44=109.479999999981|48=219696|54=1|55=IPE e-Brent|60=20140225-20:49:27|107=BRN FMJ0014!|150=0|151=1|10=203|8=FIX.4.2|9=291|35=8|34=365|49=ICE|50=G|52=20140225-20:49:27.291|56=12000|57=1|143=0|369=295|1=0|6=0|11=120001000253|14=0|17=000000000000000000000000000000000000007W|20=0|37=00000000000000143|38=2|39=0|40=2|44=109.479999999981|48=219696|54=1|55=IPE e-Brent|60=20140225-20:49:27|107=BRN FMJ0014!|150=0|151=2|10=210|8=FIX.4.2|9=291|35=8|34=366|49=ICE|50=G|52=20140225-20:49:27.291|56=12000|57=1|143=0|369=295|1=0|6=0|11=120001000254|14=0|17=000000000000000000000000000000000000007X|20=0|37=00000000000000144|38=1|39=0|40=2|44=109.479999999981|48=219696|54=1|55=IPE e-Brent|60=20140225-20:49:27|107=BRN FMJ0014!|150=0|151=1|10=212|8=FIX.4.2|9=291|35=8|34=367|49=ICE|50=G|52=20140225-20:49:27.291|56=12000|57=1|143=0|369=295|1=0|6=0|11=120001000255|14=0|17=000000000000000000000000000000000000007Y|20=0|37=00000000000000145|38=2|39=0|40=2|44=109.479999999981|48=219696|54=1|55=IPE e-Brent|60=20140225-20:49:27|107=BRN FMJ0014!|150=0|151=2|10=218|8=FIX.4.2|9=291|35=8|34=368|49=ICE|50=G|52=20140225-20:49:27.292|56=12000|57=1|143=0|369=295|1=0|6=0|11=120001000256|14=0|17=000000000000000000000000000000000000007Z|20=0|37=00000000000000146|38=1|39=0|40=2|44=109.479999999981|48=219696|54=1|55=IPE e-Brent|60=20140225-20:49:27|107=BRN FMJ0014!|150=0|151=1|10=221|8=FIX.4.2|9=291|35=8|34=369|49=ICE|50=G|52=20140225-20:49:27.292|56=12000|57=1|143=0|369=297|1=0|6=0|11=120001000257|14=0|17=0000000000000000000000000000000000000080|20=0|37=00000000000000147|38=1|39=0|40=2|44=109.479999999981|48=219696|54=1|55=IPE e-Brent|60=20140225-20:49:27|107=BRN FMJ0014!|150=0|151=1|10=185|8=FIX.4.2|9=291|35=8|34=370|49=ICE|50=G|52=20140225-20:49:27.296|56=12000|57=1|143=0|369=297|1=0|6=0|11=120001000258|14=0|17=0000000000000000000000000000000000000081|20=0|37=00000000000000148|38=1|39=0|40=2|44=109.479999999981|48=219696|54=1|55=IPE e-Brent|60=20140225-20:49:27|107=BRN FMJ0014!|150=0|151=1|10=184|8=FIX.4.2|9=291|35=8|34=371|49=ICE|50=G|52=20140225-20:49:27.297|56=12000|57=1|143=0|369=297|1=0|6=0|11=120001000259|14=0|17=0000000000000000000000000000000000000082|20=0|37=00000000000000149|38=2|39=0|40=2|44=109.479999999981|48=219696|54=1|55=IPE e-Brent|60=20140225-20:49:27|107=BRN FMJ0014!|150=0|151=2|10=191|8=FIX.4.2|9=307|35=8|34=372|49=ICE|50=G|52=20140225-20:49:27.545|56=12000|57=1|143=0|369=298|1=0|6=0|11=120001000260|14=0|17=0000000000000000000000000000000000000083|20=0|37=00000000000000143|38=2|39=4|40=2|41=120001000253|44=109.479999999981|48=219696|54=1|55=IPE e-Brent|60=20140225-20:49:27|107=BRN FMJ0014!|150=4|151=2|10=167|8=FIX.4.2|9=307|35=8|34=373|49=ICE|50=G|52=20140225-20:49:27.550|56=12000|57=1|143=0|369=299|1=0|6=0|11=120001000261|14=0|17=0000000000000000000000000000000000000084|20=0|37=00000000000000146|38=1|39=4|40=2|41=120001000256|44=109.479999999981|48=219696|54=1|55=IPE e-Brent|60=20140225-20:49:27|107=BRN FMJ0014!|150=4|151=1|10=171|8=FIX.4.2|9=291|35=8|34=374|49=ICE|50=G|52=20140225-20:49:27.800|56=12000|57=1|143=0|369=300|1=0|6=0|11=120001000262|14=0|17=0000000000000000000000000000000000000085|20=0|37=00000000000000150|38=2|39=0|40=2|44=109.479999999981|48=219696|54=1|55=IPE e-Brent|60=20140225-20:49:27|107=BRN FMJ0014!|150=0|151=2|10=158|8=FIX.4.2|9=291|35=8|34=375|49=ICE|50=G|52=20140225-20:49:27.804|56=12000|57=1|143=0|369=301|1=0|6=0|11=120001000263|14=0|17=0000000000000000000000000000000000000086|20=0|37=0000000